:100000000C9457010C9488010C9488010C9488017D
:100010000C9488010C9488010C9488010C9488013C
:100020000C9488010C9488010C9488010C9488012C
:100030000C9488010C9488010C9488010C9488011C
:100040000C9488010C94790A0C9488010C94880112
:100050000C9488010C9488010C9488010C94A509D7
:100060000C9488010C946F090C9445090C94880138
:100070000C9488010C9488010C9488010C948801DC
:100080000C944B0A0C9488010C9488010C94880100
:100090000C9488010C9488010C9488010C948801BC
:1000A0000C9488010C9488010C941D0A0C9488010E
:1000B0000C9488010C9488010C9488010C94EF092D
:1000C0000C9488010C9488010C9488010C9488018C
:1000D0000C9488010C9488010C9488010C9488017C
:1000E0000C9488010C9495020C94DF030C948E04FC
:1000F0000C94B6030C94F1030C94C1030C949B0371
:100100000C94CD040C9472040C94D1030C948702CB
:100110000C94B4040C94C20A0C94F5040C94860458
:100120000C94D9030C94D7040C94EB040C94CB03DB
:100130000C94C3040C945B040C94BE030C94A003B5
:100140000C94E1040C94BA030C94CD020C94960424
:100150000C9437020C94A0040C94B2030C94730218
:100160000C94E7030C94E3030C941A030C946304BB
:100170000C9468040C94C7030C947C040C946402E3
:100180000C94AA040C94ED030C94D50300002100F8
:10019000240027002A002D00300033000101000058
:1001A000040107010A0100000A0B02090C0D0E08E8
:1001B0000703040100000000000000000000000030
:1001C000000000000000000000000000000000002F
:1001D00000001211100000000000000000000000EC
:1001E00000000000000000000000000000002000EF
:1001F0002300260029002C002F00320000010000FF
:1002000003010601090100002200250028002B003F
:100210002E003100340002010000050108010B012D
:1002200005050505070508080808020202020A0A72
:100230000808040404040101010101010101030390
:10024000030303030303040707070C0C0C0C0C0C3B
:100250000C0C0202020206060606060606060B0B38
:100260000B0B0B0B0B0B0102102020080810204079
:10027000102040800201020108040201010204086A
:1002800010204080804020100804020180040201F8
:100290008040201008040201080402010102040841
:1002A000102040800102040810204080C20A11245E
:1002B0001FBECFEFD1E2DEBFCDBF00E00CBF13E029
:1002C000A0E0B2E0E2E6F3E200E00BBF02C007907C
:1002D0000D92AC31B107D9F724E0ACE1B3E001C035
:1002E0001D92AF3AB207E1F711E0C7E5D1E000E0B7
:1002F00006C021970109802FFE010E94A711C63573
:10030000D10780E00807A9F70E94FE0A0C94AF11FC
:100310000C9400009FB7F894A8EDB3E05B96ED91C4
:10032000FC915C9780815A962C91822B80839FBF91
:1003300008959FB7F894A8EDB3E05E96ED91FC9117
:100340005F9780815D962C91822B80839FBF08955B
:100350009FB7F894A8EDB3E09196ED91FC91929738
:10036000808190962C91822B80839FBF08959FB7A8
:10037000F894A8EDB3E09196ED91FC9192972081CD
:1003800090968C918095822380839FBF08958F9251
:100390009F92AF92BF92CF92DF92EF92FF920F9314
:1003A0001F93CF93DF93D0E0C0E0D12C082F880FAC
:1003B000110B8BE0E82EF12C812C912C54018394AD
:1003C000CC2EC8010C2E02C0959587950A94E2F7B1
:1003D00080FF3FC00E9499018FB7F894E091F3032A
:1003E000F091F40320819091F203909592239083F1
:1003F0008FBFC7010197F1F7E091FC03F091FD0376
:1004000080819091FB03892351F0D501C40104C080
:10041000880F991FAA1FBB1FCA94D2F7D82A0E941F
:100420008A012196C830D10559F60E94990187E0CA
:1004300090E00197F1F78D2DDF91CF911F910F91F2
:10044000FF90EF90DF90CF90BF90AF909F908F90F4
:1004500008959FB7F894E091F603F091F703208197
:100460008091F5038095822380839FBFB5CFAF92A3
:10047000BF92CF92DF92EF92FF920F931F93CF9391
:10048000DF936C017B018B01040F151FEB015E01F3
:10049000AE18BF08C017D10759F06991D601ED9188
:1004A000FC910190F081E02DC6011995892B79F717
:1004B000C501DF91CF911F910F91FF90EF90DF90D9
:1004C000CF90BF90AF900895FC01538D448D252FA0
:1004D00030E0842F90E0821B930B541710F0CF96DE
:1004E000089501970895FC01918D828D981761F010
:1004F000A28DAE0FBF2FB11D5D968C91928D9F5F27
:100500009F73928F90E008958FEF9FEF0895FC0105
:10051000918D828D981731F0828DE80FF11D858DB8
:1005200090E008958FEF9FEF0895FC01918D228D4B
:10053000892F90E0805C9F4F821B91098F739927D0
:10054000089586E094E00E94950221E0892B09F449
:1005500020E0822F0895FC01A48DA80FB92FB11DB2
:10056000A35ABF4F2C91848D90E001968F739927E9
:10057000848FA689B7892C93A089B1898C918370C7
:1005800080648C93938D848D981306C00288F389C0
:10059000E02D80818F7D80830895EF92FF920F93ED
:1005A0001F93CF93DF93EC0181E0888F9B8D8C8D1F
:1005B00098131AC0E889F989808185FF15C09FB713
:1005C000F894EE89FF896083E889F98980818370D6
:1005D000806480839FBF81E090E0DF91CF911F9185
:1005E0000F91FF90EF900895F62E0B8D10E00F5FA6
:1005F0001F4F0F731127E02E8C8D8E110CC00FB67C
:1006000007FCFACFE889F989808185FFF5CFCE0113
:100610000E94AB02F1CFEB8DEC0FFD2FF11DE35AE1
:10062000FF4FF0829FB7F8940B8FEA89FB89808196
:100630008062CFCFCF93DF93EC01888D8823B9F010
:10064000AA89BB89E889F9898C9185FD03C08081DD
:1006500086FD0DC00FB607FCF7CF8C9185FFF2CF5A
:10066000808185FFEDCFCE010E94AB02E9CFDF9103
:10067000CF91089580E090E0892B29F00E94A1029B
:1006800081110E94000080E090E0892B49F080E019
:1006900090E0892B29F00E94000081110E94000047
:1006A00080E090E0892B49F080E090E0892B29F0F0
:1006B0000E94000081110E94000080E090E0892BE0
:1006C00049F080E090E0892B29F00E940000811120
:1006D0000C9400000895282F30E0F901EA55FE4FF0
:1006E0009491F901EA59FD4F4491205E3D4FF90183
:1006F0002491222309F435C0992311F191509231AC
:10070000F8F4E92FF0E08827E757FC4F8F4F0C945F
:10071000A711BA03BE039B03B203B603A003C10330
:10072000C703CB03D103D503D903DF03E303A0033E
:10073000E703ED03F103809180008F7780938000C1
:10074000E22FF0E0EE0FFF1FEA5FFD4FA591B4919D
:100750008FB7F894EC91611148C040954E234C93AB
:100760008FBF0895809180008F7DE8CF80918000B9
:10077000877FE4CF84B58F7784BDE2CF84B58F7D4A
:10078000FBCF8091B0008F778093B000D9CF80915C
:10079000B0008F7DF9CF809190008F77809390008B
:1007A000CFCF809190008F7DF9CF80919000877F8F
:1007B000F5CF8091A0008F778093A000C1CF80916A
:1007C000A0008F7DF9CF8091A000877FF5CF809129
:1007D00020018F7780932001B3CF809120018F7DFE
:1007E000F9CF80912001877FF5CF4E2BB8CFCF93E3
:1007F000DF9390E0FC01EA59FD4F2491805E9D4F0C
:10080000FC0184918823D1F090E0880F991FFC01AE
:10081000E457FE4FA591B491FC01EA5FFD4FC591ED
:10082000D49161110EC09FB7F8948C91E22FE0959E
:100830008E238C932881E223E8839FBFDF91CF91A1
:1008400008958FB7F894EC91E22BEC938FBFF6CF1D
:100850001F93CF93DF93182FEB0161E00E94F70302
:10086000209739F460E0812FDF91CF911F910C9494
:100870006B03E12FF0E0EA55FE4FE491E150E231E5
:1008800008F0B3C0F0E08827E75BFB4F8F4F0C9474
:10089000A7115B046304680472047C04F5048604F5
:1008A0008E049604A004AA04B404C304CD04F50481
:1008B000D704E104EB0484B5806884BDC7BDDF9133
:1008C000CF911F91089584B5806284BDC8BDF7CFD4
:1008D00080918000806880938000D0938900C093CD
:1008E0008800EDCF80918000806280938000D0935B
:1008F0008B00C0938A00E3CF809180008860809352
:100900008000D0938D00C0938C00D9CF8091B0002F
:1009100080688093B000C093B300D1CF8091B000C5
:1009200080628093B000C093B400C9CF80919000E2
:10093000806880939000D0939900C0939800BFCFB7
:1009400080919000806280939000D0939B00C09330
:100950009A00B5CF80919000886080939000D093EA
:100960009D00C0939C00ABCF8091A00080688093D5
:10097000A0008091A0008F7B8093A000D093A9005D
:10098000C093A8009CCF8091A00080628093A000BB
:10099000D093AB00C093AA0092CF8091A000886052
:1009A0008093A000D093AD00C093AC0088CF80911D
:1009B0002001806880932001D0932901C0932801F1
:1009C0007ECF80912001806280932001D0932B0103
:1009D000C0932A0174CF8091200188608093200108
:1009E000D0932D01C0932C016ACFC038D1050CF4EF
:1009F00039CF61E038CF3FB7F8948091B20390913E
:100A0000B303A091B403B091B50326B5A89B05C06C
:100A10002F3F19F00196A11DB11D3FBFBA2FA92F7D
:100A2000982F8827BC01CD01620F711D811D911D7A
:100A300042E0660F771F881F991F4A95D1F70895E6
:100A40008F929F92AF92BF92CF92DF92EF92FF92DE
:100A50006B017C010E94FB044B015C01C114D104B9
:100A6000E104F104B9F00E94FB04681979098A09CC
:100A70009B09683E73408105910580F321E0C21A0D
:100A8000D108E108F10888EE880E83E0981EA11CC9
:100A9000B11CE4CFFF90EF90DF90CF90BF90AF906C
:100AA0009F908F900895EF92FF920F931F93CF9393
:100AB000DF937C01062F0E94B701E70110E0CE0111
:100AC0008E199F098017910724F489910E94C7010C
:100AD000F6CF0E94A8016091020470E090E080E0EF
:100AE000DF91CF911F910F91FF90EF900C94200513
:100AF00065E082E292E00E94530569E089E192E0BC
:100B00000E94530580910404882329F065E084E164
:100B100092E00E94530580910504882329F069E042
:100B20008BE092E00E94530569E082E092E00C9431
:100B300053056F927F928F929F92AF92BF92CF9206
:100B4000DF92EF92FF921F93CF93DF9300D000D0FC
:100B500000D0CDB7DEB7182F2FB7F8946091D4032B
:100B60007091D5038091D6039091D7032FBFC09089
:100B7000FE03D090FF03E0900004F09001046C1994
:100B80007D098E099F090E94E4106B017C0120E021
:100B900030E84BEB54E40E949611181614F40E94AE
:100BA00078056091020470E090E080E00E94E61019
:100BB0004B015C01AC019B01C701B6010E94B01062
:100BC00087FF0AC0A7019601C501B4010E94431026
:100BD0000E94B5100E942005112371F0212F30E0F2
:100BE000AFEBB0E00E9434102FEF30E040E050E077
:100BF0000E94E00F10E4120FFE01339687E0DF0140
:100C00001D928A95E9F781E0898382E48A831D83B6
:100C100015E027E0C22ED12C7E01BAE0EB0EF11CCC
:100C20003DEEA32E33E0B32E0E9499010E948A016B
:100C30000E94B701C6010197F1F7FE0131963F010D
:100C400098ED892E93E0992ED3018D913D010E945C
:100C5000C701F40181934F016E147F04A9F78091BD
:100C6000D903893769F481EE882E83E0982E80E0DD
:100C70000E94C701D4018D934D01AA16BB06B9F796
:100C80000E94A8018091D903807F803761F00E9483
:100C900078056091020470E090E080E00E942005F9
:100CA000115009F0C1CF8091D903807F803739F08E
:100CB000809102048A3018F48F5F8093020480913F
:100CC000F0039091F1039093EF038093EE038091F2
:100CD000DB039091DC039093F1038093F0032FB733
:100CE000F8948091D4039091D503A091D603B0914C
:100CF000D7032FBF8093FE039093FF03A0930004BC
:100D0000B09301049091D903907F81E0903709F06E
:100D100080E029960FB6F894DEBF0FBECDBFDF91FD
:100D2000CF911F91FF90EF90DF90CF90BF90AF9049
:100D30009F908F907F906F9008958F929F92AF9227
:100D4000BF92FF920F931F93CF93DF93FC01F0802C
:100D50008FE28F1508F44AC0828108E512E0081B73
:100D6000110987FD1395000F111F000F111F8181BD
:100D7000C8E8D0E0C81BD10987FDD395CC0FDD1F93
:100D8000CC0FDD1F4E010D2E000CAA08BB089801E8
:100D9000012E000C440B550B281939094A095B092F
:100DA000DB010E940A1024EB30E040E050E00E949A
:100DB000E00F820E931EA41EB51E8C169D062CF00D
:100DC000E801801691060CF4E4012297CC0FDD1F98
:100DD0002FB7F8948F2D90E0FC01EE0FFF1FE80F66
:100DE000F91FEF5DFC4FD283C1832FBFDF91CF91FD
:100DF0001F910F91FF90BF90AF909F908F9008959B
:100E00001F93CF93DF93EC01162F8881803308F076
:100E10004EC061E0812F0E94F7038881282F30E0C7
:100E2000F901EE0FFF1FE20FF31FEF5DFC4F1F7381
:100E30006081607C612B608319821A822CE0622FB2
:100E40000E949B11829FB001112430E020E0AB0191
:100E5000420F531FFA01EE0FFF1FE40FF51FEF5D66
:100E6000FC4F908196FD16C02F5F3F4F2C3031050F
:100E700071F7813009F51092800082E08093810043
:100E80001092850010928400B19A80916F00826068
:100E900080936F00E8818E2F90E0FC01EE0FFF1F22
:100EA000E80FF91FEF5DFC4F8081806480838881AB
:100EB000DF91CF911F910895823061F410929000DC
:100EC00080939100109295001092940088BB8093BB
:100ED0007100E0CF833069F41092A00082E080932B
:100EE000A1001092A5001092A40089BB809372000B
:100EF000D1CF8111CFCF1092200182E080932101C8
:100F000010922501109224018ABB80937300C2CFF6
:100F1000AF92BF92CF92DF92EF92FF920F931F9307
:100F2000CF93DF936B017A01EC01C45EDC4F288123
:100F30003CE0389F8001399F100D1124A0902003C0
:100F4000B12C27FF1FC0FB011182108288818F5FA7
:100F5000888388819801280F311D87FD3A95F60115
:100F60002A153B051CF488818C30C4F18081918165
:100F7000049680349C4908F473C0F6018081918105
:100F8000049670C088819801280F311D87FD3A951D
:100F90002A153B05DCF68881A801480F511D87FD05
:100FA0005A95FA01EE0FFF1FE40FF51FEF5DFC4F9E
:100FB000808186FFCBCF8881F801E80FF11D87FD86
:100FC000FA95CF01EE0FFF1FE80FF91FEF5DFC4F01
:100FD000808160E08F730E946B03B8CF8081918124
:100FE0002881A801420F511D27FD5A959A01FA0147
:100FF000EE0FFF1FE20FF31FEF5DFC4F21813281E7
:10100000820F931FF7019183808388819801280FB5
:10101000311D87FD3A95F901EE0FFF1FE20FF31F17
:10102000EF5DFC4F808186FF22C08881080F111D73
:1010300087FD1A95F801EE0FFF1FE00FF11FEF5D1E
:10104000FC4F808161E08F73DF91CF911F910F91F1
:10105000FF90EF90DF90CF90BF90AF900C946B0318
:1010600080E49CE9F701918380838FEF8883DF918F
:10107000CF911F910F91FF90EF90DF90CF90BF9095
:10108000AF900895FF920F931F93CF93DF93F62EA7
:10109000E90161E0452B09F460E00E946B03CC0F8D
:1010A000DD1FCC0FDD1F259704E610E061E08F2DDA
:1010B0000E946B03CE010197F1F760E08F2D0E9433
:1010C0006B03CE010197F1F70150110979F7DF9118
:1010D000CF911F910F91FF9008950F931F93CF937E
:1010E000DF938C01EB0197FF24C061E085E00E9453
:1010F0006B0360E084E00E946B0366277727601B28
:10110000710B87E00E942804D7FF1DC061E083E0D7
:101110000E946B0360E082E00E946B0366277727E2
:101120006C1B7D0B86E0DF91CF911F910F910C948A
:10113000280460E085E00E946B0361E084E00E9487
:101140006B03B801DECF60E083E00E946B0361E0D7
:1011500082E00E946B03BE01E5CFFC0101900020FC
:10116000E9F73197AF01481B590BBC0186E094E0C9
:101170000C9437028F929F92AF92BF920F931F935E
:10118000CF93DF93CDB7DEB7A1970FB6F894DEBF4C
:101190000FBECDBF19A2423008F44AE08E010F5DA8
:1011A0001F4F842E912CB12CA12CA50194010E94DB
:1011B0001210E62FB901CA01EA30F4F4E05DD8015B
:1011C000EE938D01232B242B252B79F790E080E0E3
:1011D000109719F0CD010E94AD08A1960FB6F894B2
:1011E000DEBF0FBECDBFDF91CF911F910F91BF909A
:1011F000AF909F908F900895E95CE1CFCF92DF92FE
:10120000EF92FF92CF93DF936B017C016DE286E05A
:1012100094E00E94CD02EC0166277727CB016C1980
:101220007D098E099F094AE00E94BA088C0F9D1F14
:10123000DF91CF91FF90EF90DF90CF900895CF9303
:10124000DF930E94AD08EC0182E492E00E94AD08B9
:101250008C0F9D1FDF91CF910895CF93DF93BC0139
:10126000990F880B990B97FF0CC00E94FE08EC01A8
:1012700082E492E00E94AD088C0F9D1FDF91CF9118
:1012800008954AE00E94BA08F2CF1F920F920FB65B
:101290000F9211240BB60F922F933F934F935F93AE
:1012A0006F937F938F939F93AF93BF93EF93FF932E
:1012B00086E094E00E94AB02FF91EF91BF91AF9165
:1012C0009F918F917F916F915F914F913F912F915E
:1012D0000F900BBE0F900FBE0F901F9018951F928E
:1012E0000F920FB60F9211240BB60F922F938F937C
:1012F0009F93EF93FF93E0911604F0911704808180
:10130000E0911C04F0911D0482FD1DC0908180912C
:101310001F048F5F8F7320912004821741F0E091AA
:101320001F04F0E0EA5FFB4F958F80931F04FF914D
:10133000EF919F918F912F910F900BBE0F900FBE49
:101340000F901F9018958081F2CF1F920F920FB6C9
:101350000F9211242F933F938F939F93AF93BF933B
:101360008091D4039091D503A091D603B091D70377
:101370003091B10323E0230F2D3758F50196A11DBD
:10138000B11D2093B1038093D4039093D503A09310
:10139000D603B093D7038091B2039091B303A09189
:1013A000B403B091B5030196A11DB11D8093B203A2
:1013B0009093B303A093B403B093B503BF91AF91DF
:1013C0009F918F913F912F910F900FBE0F901F9083
:1013D000189526E8230F0296A11DB11DD2CF1F92AA
:1013E0000F920FB60F9211240BB60F922F933F93CB
:1013F0004F935F936F937F938F939F93AF93BF931D
:10140000EF93FF9348E251E064E271E090E080E006
:101410000E948807FF91EF91BF91AF919F918F91AB
:101420007F916F915F914F913F912F910F900BBEE4
:101430000F900FBE0F901F9018951F920F920FB62E
:101440000F9211240BB60F922F933F934F935F93FC
:101450006F937F938F939F93AF93BF93EF93FF937C
:1014600048EA50E064EA70E083E090E00E94880778
:10147000FF91EF91BF91AF919F918F917F916F916C
:101480005F914F913F912F910F900BBE0F900FBE28
:101490000F901F9018951F920F920FB60F92112464
:1014A0000BB60F922F933F934F935F936F937F935E
:1014B0008F939F93AF93BF93EF93FF9348E950E0CF
:1014C00064E970E082E090E00E948807FF91EF916C
:1014D000BF91AF919F918F917F916F915F914F914C
:1014E0003F912F910F900BBE0F900FBE0F901F904A
:1014F00018951F920F920FB60F9211240BB60F92F0
:101500002F933F934F935F936F937F938F939F930B
:10151000AF93BF93EF93FF9348E850E064E870E027
:1015200081E090E00E948807FF91EF91BF91AF9119
:101530009F918F917F916F915F914F913F912F91EB
:101540000F900BBE0F900FBE0F901F901895FC01CF
:1015500090912003903398F481E0890F80932003C9
:101560009083892F90E0FC01EE0FFF1FE80FF91F19
:10157000EF5DFC4F88EB9BE09283818308958FEFB2
:1015800080830895E6E0F4E01382128288EE93E00F
:10159000A0E0B0E084839583A683B78384E392E0E0
:1015A0009183808385EC90E09587848784EC90E03C
:1015B0009787868780EC90E0918B808B81EC90E020
:1015C000938B828B82EC90E0958B848B86EC90E001
:1015D000978B868B118E128E138E148E8CEA94E06C
:1015E0000E94A70A89EA94E00E94A70A86EA94E08A
:1015F0000E94A70A83EA94E00C94A70ACF93DF9392
:1016000000D000D000D0CDB7DEB7789484B582602A
:1016100084BD84B5816084BD85B5826085BD85B596
:10162000816085BD80916E00816080936E00109214
:10163000810080918100826080938100809181008F
:101640008160809381008091800081608093800020
:101650008091B10084608093B1008091B00081607E
:101660008093B0008091910082608093910080917E
:1016700091008160809391008091900081608093BF
:1016800090008091A10082608093A1008091A100D0
:1016900081608093A1008091A00081608093A00070
:1016A00080912101826080932101809121018160DC
:1016B000809321018091200181608093200180919D
:1016C0007A00846080937A0080917A0082608093AF
:1016D0007A0080917A00816080937A0080917A000C
:1016E000806880937A001092C10066E370E08CEA13
:1016F00094E00E94000767E370E089EA94E00E94AA
:10170000000768E370E086EA94E00E94000769E35E
:1017100070E083EA94E00E94000764EB70E08CEADA
:1017200094E00E949D061092CB031092CA0364E6D7
:1017300070E080E090E00E94200564EB70E089EAB0
:1017400094E00E949D061092CF031092CE0364E6AF
:1017500070E080E090E00E94200569E670E083EA96
:1017600094E00E949D061092D1031092D00364E68B
:1017700070E080E090E00E94200566E970E086EA73
:1017800094E00E949D061092CD031092CC0364E673
:1017900070E080E090E00E94200561E087E00E9418
:1017A000F70361E086E00E94F70361E087E10E94B1
:1017B000F70360E087E10E946B0361E085E00E942F
:1017C000F70361E084E00E94F70361E083E00E9498
:1017D000F70361E082E00E94F70360E085E00E9489
:1017E0006B0360E084E00E946B0360E083E00E9492
:1017F0006B0360E082E00E946B0361E08EE00E9478
:10180000F70361E08FE00E94F70361E080E10E944E
:10181000F70361E081E10E94F70361E082E10E9449
:10182000F70361E083E10E94F7031092BF03109277
:10183000BE031092C7031092C6031092C303109206
:10184000C203E0911604F091170482E08083E091D6
:101850001204F09113041082E0911404F091150425
:1018600080E1808310921E04E0911A04F0911B0421
:1018700086E08083E0911804F091190480818061F2
:101880008083E0911804F09119048081886080833E
:10189000E0911804F0911904808180688083E091C0
:1018A0001804F091190480818F7D808364EF71E0CA
:1018B00080E090E00E942005E2E7F2E0E491E0930E
:1018C000F203ECE2F2E0E491F0E0EE0FFF1FEA5FDA
:1018D000FD4F859194919093F4038093F303E1E796
:1018E000F2E0E491E093F503EBE2F2E0E491F0E062
:1018F000EE0FFF1FEA5FFD4F859194919093F703E0
:101900008093F603E0E7F2E0E491E093F803EAE283
:10191000F2E0E491F0E0EE0FFF1FEA5FFD4F8591EA
:1019200094919093FA038093F903E3E7F2E0E49152
:10193000E093FB03EDE2F2E0E491F0E0EE0FFF1F35
:10194000E451FE4F859194919093FD038093FC03A5
:1019500061E08CE00E94F70361E08AE00E94F703F7
:1019600061E08BE00E94F70360E08DE00E94F703E6
:1019700061E08DE00E946B030E9499010E948A0140
:1019800080E00E94990580E00E9499058091D9032A
:10199000813479F1833769F1893759F185E492E02F
:1019A0000E941F0988E792E00E94AD086091D90368
:1019B00070E090E080E040E10E94BA0882E492E0AA
:1019C0000E94AD0881E090E09093D3038093D2030E
:1019D0008AEF92E00E94AD086091D2037091D30328
:1019E000072E000C880B990B97FFBFC00E94FE08C2
:1019F00085C081E0809302040BE010E047E0C42E34
:101A0000D12C50E3A52E52E0B52E7724739465E0D7
:101A100082E292E00E945305C6010197F1F70E940D
:101A200099010E948A010E94B701C6010197F1F74E
:101A300037E2E32E32E0F32ECE0101964C01F7019E
:101A400081917F010E94C701F40181934F01AE147F
:101A5000BF04A9F70E94A8018C818093030469E068
:101A600089E192E00E94530565E084E192E00E94E2
:101A700053057092040469E08BE092E00E945305E4
:101A80007092050469E082E092E00E94530580E0D4
:101A90000E9499058091D903893719F1833709F498
:101AA00062C001501109B9F48EE992E00E941F0949
:101AB00080EC92E00E94AD086091D90370E090E064
:101AC00080E040E10E94BA0882E492E00E94AD0802
:101AD00082E090E079CF809102048F5F80930204CE
:101AE00096CF80E0282F30E03093D3032093D203A9
:101AF00081116ECF81ED92E00E94AD0861E085E139
:101B00000E94F70360E085E10E946B03712C612C59
:101B100082E0C82ED12C93E0A92EB12C24E0822E95
:101B2000912C01E010E08091D2039091D3030197B2
:101B300011F4F3011995E0900002F090010280E0A9
:101B4000E114F104B1F00E9499056AE070E080E0D0
:101B500090E00E942005F1E0EF1AF108F0920102F6
:101B6000E0920002E8CF83E0BDCF4AE00E94BA08CD
:101B7000C5CF0E9499058091F0039091F103809563
:101B8000909584FF58C11093BB030093BA038091D2
:101B9000BA039091BB038230910509F488C108F023
:101BA00064C1009709F46CC160E870E0019709F422
:101BB00064C18091F0039091F1032091EE03309184
:101BC000EF032817390709F474C08095909581FFB9
:101BD00016C08091CE039091CF038130910509F01A
:101BE0006EC164EB70E089EA94E00E949D06109259
:101BF000CF031092CE0380E093E00E941F098091F2
:101C0000F0039091F1038095909582FF16C080912A
:101C1000D0039091D1038130910509F05EC169E64E
:101C200070E083EA94E00E949D061092D103109226
:101C3000D0038BE093E00E941F098091F003909104
:101C4000F1038095909590FF10C02091C6033091CC
:101C5000C7032130310509F04EC11092C70310921D
:101C6000C6031092C9031092C80391FF10C02091BF
:101C7000C6033091C7032130310509F044C11092E9
:101C8000C7031092C6031093C9030093C80394FFBF
:101C900010C08091C2039091C3038130910509F077
:101CA0003AC11092C3031092C2031092C50310925E
:101CB000C4032091EE033091EF038091F0039091E3
:101CC000F103A901482759278095909595FB88270E
:101CD00080F98823A9F055FB882780F9882381F0B3
:101CE0008091BE039091BF038130910509F01BC123
:101CF0001092BF031092BE031092C1031092C00352
:101D000056FF10C08091C2039091C30381309105AA
:101D100009F011C11092C3031092C2031093C503BE
:101D20000093C4032095309537FF17C057FF15C0A7
:101D30008091BC039091BD030E942D098091BC034A
:101D40009091BD03009709F0FEC061E087E10E9419
:101D50006B031093BD030093BC038091F00390913B
:101D6000F1038095909588279C70892BC1F1809113
:101D7000E003853050F46CE370E08CEA94E00E945C
:101D80009D061093CB030093CA038091E003863F26
:101D900050F064EB70E08CEA94E00E949D06109293
:101DA000CB031092CA038091DD03853050F46DE2BD
:101DB00070E086EA94E00E949D061093CD030093A4
:101DC000CC038091DD03863F50F066E970E086EA3F
:101DD00094E00E949D061092CD031092CC03809156
:101DE000F0039091F1038095909561E080FF60E0B1
:101DF00085E10E946B038091BE039091BF03019720
:101E000009F0ADC081E090E00E942D094091C0032F
:101E10005091C10324EF31E06FE070E08EE090E07C
:101E20000E9442086AE070E080E090E00E94200595
:101E30000E943A0378CE85FF05C09092BB03809242
:101E4000BA03A5CE87FF05C0B092BB03A092BA0328
:101E50009ECE86FF05C0D092BB03C092BA0397CE38
:101E60001092BB031092BA0392CE8330910521F1F8
:101E700060E87FEF049709F09CCE80E890E014C002
:101E800060E085E00E946B0360E084E00E946B03E9
:101E900060E083E00E946B0360E082E00E946B03DD
:101EA00070E060E090E080E00E946D0882CE60E823
:101EB0007FEF80E89FEFF8CF60E870E0FACF892BE2
:101EC00009F099CE6EE170E089EA94E00E949D06E7
:101ED0001093CF030093CE038ECE892B09F0A9CEA9
:101EE00070E060E083EA94E00E949D061093D103C5
:101EF0000093D0039ECE232B09F0B3CE1093C703DB
:101F00000093C603AECE232B09F0BDCE1093C703BA
:101F10000093C603B8CE892B09F0C7CE1093C30334
:101F20000093C203C2CE892B09F0E6CE1093BF0303
:101F30000093BE03E1CE892B09F0F0CE1093C303CA
:101F40000093C203EBCE019709F007CF60E087E171
:101F50000E946B031092BD031092BC03FECE8091D1
:101F6000C6039091C703019779F481E090E00E9445
:101F70002D094091C8035091C9032CE231E061E181
:101F800070E080E190E04CCF8091C2039091C30358
:101F9000019709F047CF86E193E00E941F098091E5
:101FA000C2039091C3030E942D094091C403509134
:101FB000C50326E930E063E170E082E190E030CFD4
:101FC000052E97FB1EF400940E94F70F57FD07D0D3
:101FD0000E94121007FC03D04EF40C94F70F50959A
:101FE0004095309521953F4F4F4F5F4F0895909505
:101FF0008095709561957F4F8F4F9F4F08950E94F8
:102000003410A59F900DB49F900DA49F800D911D3D
:1020100011240895B7FF0C94FF0F0E94FF0F821B3D
:10202000930B0895A1E21A2EAA1BBB1BFD010DC044
:10203000AA1FBB1FEE1FFF1FA217B307E407F50778
:1020400020F0A21BB30BE40BF50B661F771F881F54
:10205000991F1A9469F760957095809590959B01EA
:10206000AC01BD01CF010895A29FB001B39FC00193
:10207000A39F700D811D1124911DB29F700D811DB4
:102080001124911D08955058BB27AA270E945B1068
:102090000C945C110E944E1138F00E94551120F0F2
:1020A00039F49F3F19F426F40C944B110EF4E0958B
:1020B000E7FB0C944511E92F0E946D1158F3BA17F4
:1020C000620773078407950720F079F4A6F50C944E
:1020D0008F110EF4E0950B2EBA2FA02D0B01B90134
:1020E00090010C01CA01A0011124FF27591B99F08E
:1020F000593F50F4503E68F11A16F040A22F232F9A
:10210000342F4427585FF3CF469537952795A795E9
:10211000F0405395C9F77EF41F16BA0B620B730B90
:10212000840BBAF09150A1F0FF0FBB1F661F771F01
:10213000881FC2F70EC0BA0F621F731F841F48F4B6
:10214000879577956795B795F7959E3F08F0B0CF3F
:102150009395880F08F09927EE0F97958795089526
:102160000E94211108F481E008950E94751188F001
:102170009F5798F0B92F9927B751B0F0E1F0660F4B
:10218000771F881F991F1AF0BA95C9F714C0B1308C
:1021900091F00E948F11B1E008950C948F11672F78
:1021A000782F8827B85F39F0B93FCCF386957795BB
:1021B0006795B395D9F73EF49095809570956195A4
:1021C0007F4F8F4F9F4F0895E89409C097FB3EF4CF
:1021D00090958095709561957F4F8F4F9F4F992374
:1021E000A9F0F92F96E9BB279395F69587957795F2
:1021F0006795B795F111F8CFFAF4BB0F11F460FFB2
:102200001BC06F5F7F4F8F4F9F4F16C0882311F009
:1022100096E911C0772321F09EE8872F762F05C01D
:10222000662371F096E8862F70E060E02AF09A95B8
:10223000660F771F881FDAF7880F9695879597F9AD
:102240000895990F0008550FAA0BE0E8FEEF161647
:102250001706E807F907C0F012161306E407F5079A
:1022600098F0621B730B840B950B39F40A2661F00E
:10227000232B242B252B21F408950A2609F4A140B1
:10228000A6958FEF811D811D089597F99F6780E8BE
:1022900070E060E008959FEF80EC089500240A94B8
:1022A0001616170618060906089500240A94121631
:1022B0001306140605060895092E0394000C11F464
:1022C000882352F0BB0F40F4BF2B11F460FF04C011
:1022D0006F5F7F4F8F4F9F4F089557FD9058440F6A
:1022E000551F59F05F3F71F04795880F97FB991F75
:1022F00061F09F3F79F08795089512161306140632
:10230000551FF2CF4695F1DF08C0161617061806BE
:10231000991FF1CF86957105610508940895E89499
:10232000BB2766277727CB0197F908950E942111D3
:1023300008F48FEF0895991B79E004C0991F961750
:1023400008F0961B881F7A95C9F780950895EE0FBF
:10235000FF1F881F8BBF0790F691E02D1994F8940A
:02236000FFCFAD
:102362000500014300005A5A5A5A5A014F00FFFF12
:1023720003000000014D00000101440001030000C0
:10238200000001430001000145005A5A5A5A5A5AA4
:1023920000000000CD02370264021A0395027302A4
:1023A20087020D0A00436F6E74726F6C6C65722047
:1023B2006D6F6465206E6F74206D6174636865640F
:1023C200206F72206E6F20636F6E74726F6C6C651B
:1023D2007220666F756E640045787065637465641B
:1023E20020307834312C2030783733206F7220300F
:1023F2007837392C2062757420676F742000436F20
:102402006E74726F6C6C6572206E6F7420616363A0
:10241200657074696E6720636F6D6D616E647300C1
:102422006D6F6465207374696C20736574206174C8
:1024320000466F756E6420436F6E74726F6C6C65CC
:10244200722C20636F6E666967757265642073759E
:10245200636365737366756C20006572726F7200D8
:102462004C3320707265737365640052332070724E
:0C2472006573736564007374657033005B
:00000001FF
