:020000040000FA
:100000000C9457010C9488010C9488010C9488017D
:100010000C9488010C9488010C9488010C9488013C
:100020000C9488010C9488010C9488010C9488012C
:100030000C9488010C9488010C9488010C9488011C
:100040000C9488010C94790A0C9488010C94880112
:100050000C9488010C9488010C9488010C94A509D7
:100060000C9488010C946F090C9445090C94880138
:100070000C9488010C9488010C9488010C948801DC
:100080000C944B0A0C9488010C9488010C94880100
:100090000C9488010C9488010C9488010C948801BC
:1000A0000C9488010C9488010C941D0A0C9488010E
:1000B0000C9488010C9488010C9488010C94EF092D
:1000C0000C9488010C9488010C9488010C9488018C
:1000D0000C9488010C9488010C9488010C9488017C
:1000E0000C9488010C9495020C94DF030C948E04FC
:1000F0000C94B6030C94F1030C94C1030C949B0371
:100100000C94CD040C9472040C94D1030C948702CB
:100110000C94B4040C94C20A0C94F5040C94860458
:100120000C94D9030C94D7040C94EB040C94CB03DB
:100130000C94C3040C945B040C94BE030C94A003B5
:100140000C94E1040C94BA030C94CD020C94960424
:100150000C9437020C94A0040C94B2030C94730218
:100160000C94E7030C94E3030C941A030C946304BB
:100170000C9468040C94C7030C947C040C946402E3
:100180000C94AA040C94ED030C94D50300002100F8
:10019000240027002A002D00300033000101000058
:1001A000040107010A0100000A0B02090C0D0E08E8
:1001B0000703040100000000000000000000000030
:1001C000000000000000000000000000000000002F
:1001D00000001211100000000000000000000000EC
:1001E00000000000000000000000000000002000EF
:1001F0002300260029002C002F00320000010000FF
:1002000003010601090100002200250028002B003F
:100210002E003100340002010000050108010B012D
:1002200005050505070508080808020202020A0A72
:100230000808040404040101010101010101030390
:10024000030303030303040707070C0C0C0C0C0C3B
:100250000C0C0202020206060606060606060B0B38
:100260000B0B0B0B0B0B0102102020080810204079
:10027000102040800201020108040201010204086A
:1002800010204080804020100804020180040201F8
:100290008040201008040201080402010102040841
:1002A000102040800102040810204080C20A11245E
:1002B0001FBECFEFD1E2DEBFCDBF00E00CBF13E029
:1002C000A0E0B2E0E2E6F3E200E00BBF02C007907C
:1002D0000D92AC31B107D9F724E0ACE1B3E001C035
:1002E0001D92AF3AB207E1F711E0C7E5D1E000E0B7
:1002F00006C021970109802FFE010E94A711C63573
:10030000D10780E00807A9F70E94FE0A0C94AF11FC
:100310000C9400009FB7F894A8EDB3E05B96ED91C4
:10032000FC915C9780815A962C91822B80839FBF91
:1003300008959FB7F894A8EDB3E05E96ED91FC9117
:100340005F9780815D962C91822B80839FBF08955B
:100350009FB7F894A8EDB3E09196ED91FC91929738
:10036000808190962C91822B80839FBF08959FB7A8
:10037000F894A8EDB3E09196ED91FC9192972081CD
:1003800090968C918095822380839FBF08958F9251
:100390009F92AF92BF92CF92DF92EF92FF920F9314
:1003A0001F93CF93DF93D0E0C0E0D12C082F880FAC
:1003B000110B8BE0E82EF12C812C912C54018394AD
:1003C000CC2EC8010C2E02C0959587950A94E2F7B1
:1003D00080FF3FC00E9499018FB7F894E091F3032A
:1003E000F091F40320819091F203909592239083F1
:1003F0008FBFC7010197F1F7E091FC03F091FD0376
:1004000080819091FB03892351F0D501C40104C080
:10041000880F991FAA1FBB1FCA94D2F7D82A0E941F
:100420008A012196C830D10559F60E94990187E0CA
:1004300090E00197F1F78D2DDF91CF911F910F91F2
:10044000FF90EF90DF90CF90BF90AF909F908F90F4
:1004500008959FB7F894E091F603F091F703208197
:100460008091F5038095822380839FBFB5CFAF92A3
:10047000BF92CF92DF92EF92FF920F931F93CF9391
:10048000DF936C017B018B01040F151FEB015E01F3
:10049000AE18BF08C017D10759F06991D601ED9188
:1004A000FC910190F081E02DC6011995892B79F717
:1004B000C501DF91CF911F910F91FF90EF90DF90D9
:1004C000CF90BF90AF900895FC01538D448D252FA0
:1004D00030E0842F90E0821B930B541710F0CF96DE
:1004E000089501970895FC01918D828D981761F010
:1004F000A28DAE0FBF2FB11D5D968C91928D9F5F27
:100500009F73928F90E008958FEF9FEF0895FC0105
:10051000918D828D981731F0828DE80FF11D858DB8
:1005200090E008958FEF9FEF0895FC01918D228D4B
:10053000892F90E0805C9F4F821B91098F739927D0
:10054000089586E094E00E94950221E0892B09F449
:1005500020E0822F0895FC01A48DA80FB92FB11DB2
:10056000A35ABF4F2C91848D90E001968F739927E9
:10057000848FA689B7892C93A089B1898C918370C7
:1005800080648C93938D848D981306C00288F389C0
:10059000E02D80818F7D80830895EF92FF920F93ED
:1005A0001F93CF93DF93EC0181E0888F9B8D8C8D1F
:1005B00098131AC0E889F989808185FF15C09FB713
:1005C000F894EE89FF896083E889F98980818370D6
:1005D000806480839FBF81E090E0DF91CF911F9185
:1005E0000F91FF90EF900895F62E0B8D10E00F5FA6
:1005F0001F4F0F731127E02E8C8D8E110CC00FB67C
:1006000007FCFACFE889F989808185FFF5CFCE0113
:100610000E94AB02F1CFEB8DEC0FFD2FF11DE35AE1
:10062000FF4FF0829FB7F8940B8FEA89FB89808196
:100630008062CFCFCF93DF93EC01888D8823B9F010
:10064000AA89BB89E889F9898C9185FD03C08081DD
:1006500086FD0DC00FB607FCF7CF8C9185FFF2CF5A
:10066000808185FFEDCFCE010E94AB02E9CFDF9103
:10067000CF91089580E090E0892B29F00E94A1029B
:1006800081110E94000080E090E0892B49F080E019
:1006900090E0892B29F00E94000081110E94000047
:1006A00080E090E0892B49F080E090E0892B29F0F0
:1006B0000E94000081110E94000080E090E0892BE0
:1006C00049F080E090E0892B29F00E940000811120
:1006D0000C9400000895282F30E0F901EA55FE4FF0
:1006E0009491F901EA59FD4F4491205E3D4FF90183
:1006F0002491222309F435C0992311F191509231AC
:10070000F8F4E92FF0E08827E757FC4F8F4F0C945F
:10071000A711BA03BE039B03B203B603A003C10330
:10072000C703CB03D103D503D903DF03E303A0033E
:10073000E703ED03F103809180008F7780938000C1
:10074000E22FF0E0EE0FFF1FEA5FFD4FA591B4919D
:100750008FB7F894EC91611148C040954E234C93AB
:100760008FBF0895809180008F7DE8CF80918000B9
:10077000877FE4CF84B58F7784BDE2CF84B58F7D4A
:10078000FBCF8091B0008F778093B000D9CF80915C
:10079000B0008F7DF9CF809190008F77809390008B
:1007A000CFCF809190008F7DF9CF80919000877F8F
:1007B000F5CF8091A0008F778093A000C1CF80916A
:1007C000A0008F7DF9CF8091A000877FF5CF809129
:1007D00020018F7780932001B3CF809120018F7DFE
:1007E000F9CF80912001877FF5CF4E2BB8CFCF93E3
:1007F000DF9390E0FC01EA59FD4F2491805E9D4F0C
:10080000FC0184918823D1F090E0880F991FFC01AE
:10081000E457FE4FA591B491FC01EA5FFD4FC591ED
:10082000D49161110EC09FB7F8948C91E22FE0959E
:100830008E238C932881E223E8839FBFDF91CF91A1
:1008400008958FB7F894EC91E22BEC938FBFF6CF1D
:100850001F93CF93DF93182FEB0161E00E94F70302
:10086000209739F460E0812FDF91CF911F910C9494
:100870006B03E12FF0E0EA55FE4FE491E150E231E5
:1008800008F0B3C0F0E08827E75BFB4F8F4F0C9474
:10089000A7115B046304680472047C04F5048604F5
:1008A0008E049604A004AA04B404C304CD04F50481
:1008B000D704E104EB0484B5806884BDC7BDDF9133
:1008C000CF911F91089584B5806284BDC8BDF7CFD4
:1008D00080918000806880938000D0938900C093CD
:1008E0008800EDCF80918000806280938000D0935B
:1008F0008B00C0938A00E3CF809180008860809352
:100900008000D0938D00C0938C00D9CF8091B0002F
:1009100080688093B000C093B300D1CF8091B000C5
:1009200080628093B000C093B400C9CF80919000E2
:10093000806880939000D0939900C0939800BFCFB7
:1009400080919000806280939000D0939B00C09330
:100950009A00B5CF80919000886080939000D093EA
:100960009D00C0939C00ABCF8091A00080688093D5
:10097000A0008091A0008F7B8093A000D093A9005D
:10098000C093A8009CCF8091A00080628093A000BB
:10099000D093AB00C093AA0092CF8091A000886052
:1009A0008093A000D093AD00C093AC0088CF80911D
:1009B0002001806880932001D0932901C0932801F1
:1009C0007ECF80912001806280932001D0932B0103
:1009D000C0932A0174CF8091200188608093200108
:1009E000D0932D01C0932C016ACFC038D1050CF4EF
:1009F00039CF61E038CF3FB7F8948091B20390913E
:100A0000B303A091B403B091B50326B5A89B05C06C
:100A10002F3F19F00196A11DB11D3FBFBA2FA92F7D
:100A2000982F8827BC01CD01620F711D811D911D7A
:100A300042E0660F771F881F991F4A95D1F70895E6
:100A40008F929F92AF92BF92CF92DF92EF92FF92DE
:100A50006B017C010E94FB044B015C01C114D104B9
:100A6000E104F104B9F00E94FB04681979098A09CC
:100A70009B09683E73408105910580F321E0C21A0D
:100A8000D108E108F10888EE880E83E0981EA11CC9
:100A9000B11CE4CFFF90EF90DF90CF90BF90AF906C
:100AA0009F908F900895EF92FF920F931F93CF9393
:100AB000DF937C01062F0E94B701E70110E0CE0111
:100AC0008E199F098017910724F489910E94C7010C
:100AD000F6CF0E94A8016091020470E090E080E0EF
:100AE000DF91CF911F910F91FF90EF900C94200513
:100AF00065E082E292E00E94530569E089E192E0BC
:100B00000E94530580910404882329F065E084E164
:100B100092E00E94530580910504882329F069E042
:100B20008BE092E00E94530569E082E092E00C9431
:100B300053056F927F928F929F92AF92BF92CF9206
:100B4000DF92EF92FF921F93CF93DF9300D000D0FC
:100B500000D0CDB7DEB7182F2FB7F8946091D4032B
:100B60007091D5038091D6039091D7032FBFC09089
:100B7000FE03D090FF03E0900004F09001046C1994
:100B80007D098E099F090E94E4106B017C0120E021
:100B900030E84BEB54E40E949611181614F40E94AE
:100BA00078056091020470E090E080E00E94E61019
:100BB0004B015C01AC019B01C701B6010E94B01062
:100BC00087FF0AC0A7019601C501B4010E94431026
:100BD0000E94B5100E942005112371F0212F30E0F2
:100BE000AFEBB0E00E9434102FEF30E040E050E077
:100BF0000E94E00F10E4120FFE01339687E0DF0140
:100C00001D928A95E9F781E0898382E48A831D83B6
:100C100015E027E0C22ED12C7E01BAE0EB0EF11CCC
:100C20003DEEA32E33E0B32E0E9499010E948A016B
:100C30000E94B701C6010197F1F7FE0131963F010D
:100C400098ED892E93E0992ED3018D913D010E945C
:100C5000C701F40181934F016E147F04A9F78091BD
:100C6000D903893769F481EE882E83E0982E80E0DD
:100C70000E94C701D4018D934D01AA16BB06B9F796
:100C80000E94A8018091D903807F803761F00E9483
:100C900078056091020470E090E080E00E942005F9
:100CA000115009F0C1CF8091D903807F803739F08E
:100CB000809102048A3018F48F5F8093020480913F
:100CC000F0039091F1039093EF038093EE038091F2
:100CD000DB039091DC039093F1038093F0032FB733
:100CE000F8948091D4039091D503A091D603B0914C
:100CF000D7032FBF8093FE039093FF03A0930004BC
:100D0000B09301049091D903907F81E0903709F06E
:100D100080E029960FB6F894DEBF0FBECDBFDF91FD
:100D2000CF911F91FF90EF90DF90CF90BF90AF9049
:100D30009F908F907F906F9008958F929F92AF9227
:100D4000BF92FF920F931F93CF93DF93FC01F0802C
:100D50008FE28F1508F44AC0828108E512E0081B73
:100D6000110987FD1395000F111F000F111F8181BD
:100D7000C8E8D0E0C81BD10987FDD395CC0FDD1F93
:100D8000CC0FDD1F4E010D2E000CAA08BB089801E8
:100D9000012E000C440B550B281939094A095B092F
:100DA000DB010E940A1024EB30E040E050E00E949A
:100DB000E00F820E931EA41EB51E8C169D062CF00D
:100DC000E801801691060CF4E4012297CC0FDD1F98
:100DD0002FB7F8948F2D90E0FC01EE0FFF1FE80F66
:100DE000F91FEF5DFC4FD283C1832FBFDF91CF91FD
:100DF0001F910F91FF90BF90AF909F908F9008959B
:100E00001F93CF93DF93EC01162F8881803308F076
:100E10004EC061E0812F0E94F7038881282F30E0C7
:100E2000F901EE0FFF1FE20FF31FEF5DFC4F1F7381
:100E30006081607C612B608319821A822CE0622FB2
:100E40000E949B11829FB001112430E020E0AB0191
:100E5000420F531FFA01EE0FFF1FE40FF51FEF5D66
:100E6000FC4F908196FD16C02F5F3F4F2C3031050F
:100E700071F7813009F51092800082E08093810043
:100E80001092850010928400B19A80916F00826068
:100E900080936F00E8818E2F90E0FC01EE0FFF1F22
:100EA000E80FF91FEF5DFC4F8081806480838881AB
:100EB000DF91CF911F910895823061F410929000DC
:100EC00080939100109295001092940088BB8093BB
:100ED0007100E0CF833069F41092A00082E080932B
:100EE000A1001092A5001092A40089BB809372000B
:100EF000D1CF8111CFCF1092200182E080932101C8
:100F000010922501109224018ABB80937300C2CFF6
:100F1000AF92BF92CF92DF92EF92FF920F931F9307
:100F2000CF93DF936B017A01EC01C45EDC4F288123
:100F30003CE0389F8001399F100D1124A0902003C0
:100F4000B12C27FF1FC0FB011182108288818F5FA7
:100F5000888388819801280F311D87FD3A95F60115
:100F60002A153B051CF488818C30C4F18081918165
:100F7000049680349C4908F473C0F6018081918105
:100F8000049670C088819801280F311D87FD3A951D
:100F90002A153B05DCF68881A801480F511D87FD05
:100FA0005A95FA01EE0FFF1FE40FF51FEF5DFC4F9E
:100FB000808186FFCBCF8881F801E80FF11D87FD86
:100FC000FA95CF01EE0FFF1FE80FF91FEF5DFC4F01
:100FD000808160E08F730E946B03B8CF8081918124
:100FE0002881A801420F511D27FD5A959A01FA0147
:100FF000EE0FFF1FE20FF31FEF5DFC4F21813281E7
:10100000820F931FF7019183808388819801280FB5
:10101000311D87FD3A95F901EE0FFF1FE20FF31F17
:10102000EF5DFC4F808186FF22C08881080F111D73
:1010300087FD1A95F801EE0FFF1FE00FF11FEF5D1E
:10104000FC4F808161E08F73DF91CF911F910F91F1
:10105000FF90EF90DF90CF90BF90AF900C946B0318
:1010600080E49CE9F701918380838FEF8883DF918F
:10107000CF911F910F91FF90EF90DF90CF90BF9095
:10108000AF900895FF920F931F93CF93DF93F62EA7
:10109000E90161E0452B09F460E00E946B03CC0F8D
:1010A000DD1FCC0FDD1F259704E610E061E08F2DDA
:1010B0000E946B03CE010197F1F760E08F2D0E9433
:1010C0006B03CE010197F1F70150110979F7DF9118
:1010D000CF911F910F91FF9008950F931F93CF937E
:1010E000DF938C01EB0197FF24C061E085E00E9453
:1010F0006B0360E084E00E946B0366277727601B28
:10110000710B87E00E942804D7FF1DC061E083E0D7
:101110000E946B0360E082E00E946B0366277727E2
:101120006C1B7D0B86E0DF91CF911F910F910C948A
:10113000280460E085E00E946B0361E084E00E9487
:101140006B03B801DECF60E083E00E946B0361E0D7
:1011500082E00E946B03BE01E5CFFC0101900020FC
:10116000E9F73197AF01481B590BBC0186E094E0C9
:101170000C9437028F929F92AF92BF920F931F935E
:10118000CF93DF93CDB7DEB7A1970FB6F894DEBF4C
:101190000FBECDBF19A2423008F44AE08E010F5DA8
:1011A0001F4F842E912CB12CA12CA50194010E94DB
:1011B0001210E62FB901CA01EA30F4F4E05DD8015B
:1011C000EE938D01232B242B252B79F790E080E0E3
:1011D000109719F0CD010E94AD08A1960FB6F894B2
:1011E000DEBF0FBECDBFDF91CF911F910F91BF909A
:1011F000AF909F908F900895E95CE1CFCF92DF92FE
:10120000EF92FF92CF93DF936B017C016DE286E05A
:1012100094E00E94CD02EC0166277727CB016C1980
:101220007D098E099F094AE00E94BA088C0F9D1F14
:10123000DF91CF91FF90EF90DF90CF900895CF9303
:10124000DF930E94AD08EC0182E492E00E94AD08B9
:101250008C0F9D1FDF91CF910895CF93DF93BC0139
:10126000990F880B990B97FF0CC00E94FE08EC01A8
:1012700082E492E00E94AD088C0F9D1FDF91CF9118
:1012800008954AE00E94BA08F2CF1F920F920FB65B
:101290000F9211240BB60F922F933F934F935F93AE
:1012A0006F937F938F939F93AF93BF93EF93FF932E
:1012B00086E094E00E94AB02FF91EF91BF91AF9165
:1012C0009F918F917F916F915F914F913F912F915E
:1012D0000F900BBE0F900FBE0F901F9018951F928E
:1012E0000F920FB60F9211240BB60F922F938F937C
:1012F0009F93EF93FF93E0911604F0911704808180
:10130000E0911C04F0911D0482FD1DC0908180912C
:101310001F048F5F8F7320912004821741F0E091AA
:101320001F04F0E0EA5FFB4F958F80931F04FF914D
:10133000EF919F918F912F910F900BBE0F900FBE49
:101340000F901F9018958081F2CF1F920F920FB6C9
:101350000F9211242F933F938F939F93AF93BF933B
:101360008091D4039091D503A091D603B091D70377
:101370003091B10323E0230F2D3758F50196A11DBD
:10138000B11D2093B1038093D4039093D503A09310
:10139000D603B093D7038091B2039091B303A09189
:1013A000B403B091B5030196A11DB11D8093B203A2
:1013B0009093B303A093B403B093B503BF91AF91DF
:1013C0009F918F913F912F910F900FBE0F901F9083
:1013D000189526E8230F0296A11DB11DD2CF1F92AA
:1013E0000F920FB60F9211240BB60F922F933F93CB
:1013F0004F935F936F937F938F939F93AF93BF931D
:10140000EF93FF9348E251E064E271E090E080E006
:101410000E948807FF91EF91BF91AF919F918F91AB
:101420007F916F915F914F913F912F910F900BBEE4
:101430000F900FBE0F901F9018951F920F920FB62E
:101440000F9211240BB60F922F933F934F935F93FC
:101450006F937F938F939F93AF93BF93EF93FF937C
:1014600048EA50E064EA70E083E090E00E94880778
:10147000FF91EF91BF91AF919F918F917F916F916C
:101480005F914F913F912F910F900BBE0F900FBE28
:101490000F901F9018951F920F920FB60F92112464
:1014A0000BB60F922F933F934F935F936F937F935E
:1014B0008F939F93AF93BF93EF93FF9348E950E0CF
:1014C00064E970E082E090E00E948807FF91EF916C
:1014D000BF91AF919F918F917F916F915F914F914C
:1014E0003F912F910F900BBE0F900FBE0F901F904A
:1014F00018951F920F920FB60F9211240BB60F92F0
:101500002F933F934F935F936F937F938F939F930B
:10151000AF93BF93EF93FF9348E850E064E870E027
:1015200081E090E00E948807FF91EF91BF91AF9119
:101530009F918F917F916F915F914F913F912F91EB
:101540000F900BBE0F900FBE0F901F901895FC01CF
:1015500090912003903398F481E0890F80932003C9
:101560009083892F90E0FC01EE0FFF1FE80FF91F19
:10157000EF5DFC4F88EB9BE09283818308958FEFB2
:1015800080830895E6E0F4E01382128288EE93E00F
:10159000A0E0B0E084839583A683B78384E392E0E0
:1015A0009183808385EC90E09587848784EC90E03C
:1015B0009787868780EC90E0918B808B81EC90E020
:1015C000938B828B82EC90E0958B848B86EC90E001
:1015D000978B868B118E128E138E148E8CEA94E06C
:1015E0000E94A70A89EA94E00E94A70A86EA94E08A
:1015F0000E94A70A83EA94E00C94A70ACF93DF9392
:1016000000D000D000D0CDB7DEB7789484B582602A
:1016100084BD84B5816084BD85B5826085BD85B596
:10162000816085BD80916E00816080936E00109214
:10163000810080918100826080938100809181008F
:101640008160809381008091800081608093800020
:101650008091B10084608093B1008091B00081607E
:101660008093B0008091910082608093910080917E
:1016700091008160809391008091900081608093BF
:1016800090008091A10082608093A1008091A100D0
:1016900081608093A1008091A00081608093A00070
:1016A00080912101826080932101809121018160DC
:1016B000809321018091200181608093200180919D
:1016C0007A00846080937A0080917A0082608093AF
:1016D0007A0080917A00816080937A0080917A000C
:1016E000806880937A001092C10066E370E08CEA13
:1016F00094E00E94000767E370E089EA94E00E94AA
:10170000000768E370E086EA94E00E94000769E35E
:1017100070E083EA94E00E94000764EB70E08CEADA
:1017200094E00E949D061092CB031092CA0364E6D7
:1017300070E080E090E00E94200564EB70E089EAB0
:1017400094E00E949D061092CF031092CE0364E6AF
:1017500070E080E090E00E94200569E670E083EA96
:1017600094E00E949D061092D1031092D00364E68B
:1017700070E080E090E00E94200566E970E086EA73
:1017800094E00E949D061092CD031092CC0364E673
:1017900070E080E090E00E94200561E087E00E9418
:1017A000F70361E086E00E94F70361E087E10E94B1
:1017B000F70360E087E10E946B0361E085E00E942F
:1017C000F70361E084E00E94F70361E083E00E9498
:1017D000F70361E082E00E94F70360E085E00E9489
:1017E0006B0360E084E00E946B0360E083E00E9492
:1017F0006B0360E082E00E946B0361E08EE00E9478
:10180000F70361E08FE00E94F70361E080E10E944E
:10181000F70361E081E10E94F70361E082E10E9449
:10182000F70361E083E10E94F7031092BF03109277
:10183000BE031092C7031092C6031092C303109206
:10184000C203E0911604F091170482E08083E091D6
:101850001204F09113041082E0911404F091150425
:1018600080E1808310921E04E0911A04F0911B0421
:1018700086E08083E0911804F091190480818061F2
:101880008083E0911804F09119048081886080833E
:10189000E0911804F0911904808180688083E091C0
:1018A0001804F091190480818F7D808364EF71E0CA
:1018B00080E090E00E942005E2E7F2E0E491E0930E
:1018C000F203ECE2F2E0E491F0E0EE0FFF1FEA5FDA
:1018D000FD4F859194919093F4038093F303E1E796
:1018E000F2E0E491E093F503EBE2F2E0E491F0E062
:1018F000EE0FFF1FEA5FFD4F859194919093F703E0
:101900008093F603E0E7F2E0E491E093F803EAE283
:10191000F2E0E491F0E0EE0FFF1FEA5FFD4F8591EA
:1019200094919093FA038093F903E3E7F2E0E49152
:10193000E093FB03EDE2F2E0E491F0E0EE0FFF1F35
:10194000E451FE4F859194919093FD038093FC03A5
:1019500061E08CE00E94F70361E08AE00E94F703F7
:1019600061E08BE00E94F70360E08DE00E94F703E6
:1019700061E08DE00E946B030E9499010E948A0140
:1019800080E00E94990580E00E9499058091D9032A
:10199000813479F1833769F1893759F185E492E02F
:1019A0000E941F0988E792E00E94AD086091D90368
:1019B00070E090E080E040E10E94BA0882E492E0AA
:1019C0000E94AD0881E090E09093D3038093D2030E
:1019D0008AEF92E00E94AD086091D2037091D30328
:1019E000072E000C880B990B97FFBFC00E94FE08C2
:1019F00085C081E0809302040BE010E047E0C42E34
:101A0000D12C50E3A52E52E0B52E7724739465E0D7
:101A100082E292E00E945305C6010197F1F70E940D
:101A200099010E948A010E94B701C6010197F1F74E
:101A300037E2E32E32E0F32ECE0101964C01F7019E
:101A400081917F010E94C701F40181934F01AE147F
:101A5000BF04A9F70E94A8018C818093030469E068
:101A600089E192E00E94530565E084E192E00E94E2
:101A700053057092040469E08BE092E00E945305E4
:101A80007092050469E082E092E00E94530580E0D4
:101A90000E9499058091D903893719F1833709F498
:101AA00062C001501109B9F48EE992E00E941F0949
:101AB00080EC92E00E94AD086091D90370E090E064
:101AC00080E040E10E94BA0882E492E00E94AD0802
:101AD00082E090E079CF809102048F5F80930204CE
:101AE00096CF80E0282F30E03093D3032093D203A9
:101AF00081116ECF81ED92E00E94AD0861E085E139
:101B00000E94F70360E085E10E946B03712C612C59
:101B100082E0C82ED12C93E0A92EB12C24E0822E95
:101B2000912C01E010E08091D2039091D3030197B2
:101B300011F4F3011995E0900002F090010280E0A9
:101B4000E114F104B1F00E9499056AE070E080E0D0
:101B500090E00E942005F1E0EF1AF108F0920102F6
:101B6000E0920002E8CF83E0BDCF4AE00E94BA08CD
:101B7000C5CF0E9499058091F0039091F103809563
:101B8000909584FF58C11093BB030093BA038091D2
:101B9000BA039091BB038230910509F488C108F023
:101BA00064C1009709F46CC160E870E0019709F422
:101BB00064C18091F0039091F1032091EE03309184
:101BC000EF032817390709F474C08095909581FFB9
:101BD00016C08091CE039091CF038130910509F01A
:101BE0006EC164EB70E089EA94E00E949D06109259
:101BF000CF031092CE0380E093E00E941F098091F2
:101C0000F0039091F1038095909582FF16C080912A
:101C1000D0039091D1038130910509F05EC169E64E
:101C200070E083EA94E00E949D061092D103109226
:101C3000D0038BE093E00E941F098091F003909104
:101C4000F1038095909590FF10C02091C6033091CC
:101C5000C7032130310509F04EC11092C70310921D
:101C6000C6031092C9031092C80391FF10C02091BF
:101C7000C6033091C7032130310509F044C11092E9
:101C8000C7031092C6031093C9030093C80394FFBF
:101C900010C08091C2039091C3038130910509F077
:101CA0003AC11092C3031092C2031092C50310925E
:101CB000C4032091EE033091EF038091F0039091E3
:101CC000F103A901482759278095909595FB88270E
:101CD00080F98823A9F055FB882780F9882381F0B3
:101CE0008091BE039091BF038130910509F01BC123
:101CF0001092BF031092BE031092C1031092C00352
:101D000056FF10C08091C2039091C30381309105AA
:101D100009F011C11092C3031092C2031093C503BE
:101D20000093C4032095309537FF17C057FF15C0A7
:101D30008091BC039091BD030E942D098091BC034A
:101D40009091BD03009709F0FEC061E087E10E9419
:101D50006B031093BD030093BC038091F00390913B
:101D6000F1038095909588279C70892BC1F1809113
:101D7000E003853050F46CE370E08CEA94E00E945C
:101D80009D061093CB030093CA038091E003863F26
:101D900050F064EB70E08CEA94E00E949D06109293
:101DA000CB031092CA038091DD03853050F46DE2BD
:101DB00070E086EA94E00E949D061093CD030093A4
:101DC000CC038091DD03863F50F066E970E086EA3F
:101DD00094E00E949D061092CD031092CC03809156
:101DE000F0039091F1038095909561E080FF60E0B1
:101DF00085E10E946B038091BE039091BF03019720
:101E000009F0ADC081E090E00E942D094091C0032F
:101E10005091C10324EF31E06FE070E08EE090E07C
:101E20000E9442086AE070E080E090E00E94200595
:101E30000E943A0378CE85FF05C09092BB03809242
:101E4000BA03A5CE87FF05C0B092BB03A092BA0328
:101E50009ECE86FF05C0D092BB03C092BA0397CE38
:101E60001092BB031092BA0392CE8330910521F1F8
:101E700060E87FEF049709F09CCE80E890E014C002
:101E800060E085E00E946B0360E084E00E946B03E9
:101E900060E083E00E946B0360E082E00E946B03DD
:101EA00070E060E090E080E00E946D0882CE60E823
:101EB0007FEF80E89FEFF8CF60E870E0FACF892BE2
:101EC00009F099CE6EE170E089EA94E00E949D06E7
:101ED0001093CF030093CE038ECE892B09F0A9CEA9
:101EE00070E060E083EA94E00E949D061093D103C5
:101EF0000093D0039ECE232B09F0B3CE1093C703DB
:101F00000093C603AECE232B09F0BDCE1093C703BA
:101F10000093C603B8CE892B09F0C7CE1093C30334
:101F20000093C203C2CE892B09F0E6CE1093BF0303
:101F30000093BE03E1CE892B09F0F0CE1093C303CA
:101F40000093C203EBCE019709F007CF60E087E171
:101F50000E946B031092BD031092BC03FECE8091D1
:101F6000C6039091C703019779F481E090E00E9445
:101F70002D094091C8035091C9032CE231E061E181
:101F800070E080E190E04CCF8091C2039091C30358
:101F9000019709F047CF86E193E00E941F098091E5
:101FA000C2039091C3030E942D094091C403509134
:101FB000C50326E930E063E170E082E190E030CFD4
:101FC000052E97FB1EF400940E94F70F57FD07D0D3
:101FD0000E94121007FC03D04EF40C94F70F50959A
:101FE0004095309521953F4F4F4F5F4F0895909505
:101FF0008095709561957F4F8F4F9F4F08950E94F8
:102000003410A59F900DB49F900DA49F800D911D3D
:1020100011240895B7FF0C94FF0F0E94FF0F821B3D
:10202000930B0895A1E21A2EAA1BBB1BFD010DC044
:10203000AA1FBB1FEE1FFF1FA217B307E407F50778
:1020400020F0A21BB30BE40BF50B661F771F881F54
:10205000991F1A9469F760957095809590959B01EA
:10206000AC01BD01CF010895A29FB001B39FC00193
:10207000A39F700D811D1124911DB29F700D811DB4
:102080001124911D08955058BB27AA270E945B1068
:102090000C945C110E944E1138F00E94551120F0F2
:1020A00039F49F3F19F426F40C944B110EF4E0958B
:1020B000E7FB0C944511E92F0E946D1158F3BA17F4
:1020C000620773078407950720F079F4A6F50C944E
:1020D0008F110EF4E0950B2EBA2FA02D0B01B90134
:1020E00090010C01CA01A0011124FF27591B99F08E
:1020F000593F50F4503E68F11A16F040A22F232F9A
:10210000342F4427585FF3CF469537952795A795E9
:10211000F0405395C9F77EF41F16BA0B620B730B90
:10212000840BBAF09150A1F0FF0FBB1F661F771F01
:10213000881FC2F70EC0BA0F621F731F841F48F4B6
:10214000879577956795B795F7959E3F08F0B0CF3F
:102150009395880F08F09927EE0F97958795089526
:102160000E94211108F481E008950E94751188F001
:102170009F5798F0B92F9927B751B0F0E1F0660F4B
:10218000771F881F991F1AF0BA95C9F714C0B1308C
:1021900091F00E948F11B1E008950C948F11672F78
:1021A000782F8827B85F39F0B93FCCF386957795BB
:1021B0006795B395D9F73EF49095809570956195A4
:1021C0007F4F8F4F9F4F0895E89409C097FB3EF4CF
:1021D00090958095709561957F4F8F4F9F4F992374
:1021E000A9F0F92F96E9BB279395F69587957795F2
:1021F0006795B795F111F8CFFAF4BB0F11F460FFB2
:102200001BC06F5F7F4F8F4F9F4F16C0882311F009
:1022100096E911C0772321F09EE8872F762F05C01D
:10222000662371F096E8862F70E060E02AF09A95B8
:10223000660F771F881FDAF7880F9695879597F9AD
:102240000895990F0008550FAA0BE0E8FEEF161647
:102250001706E807F907C0F012161306E407F5079A
:1022600098F0621B730B840B950B39F40A2661F00E
:10227000232B242B252B21F408950A2609F4A140B1
:10228000A6958FEF811D811D089597F99F6780E8BE
:1022900070E060E008959FEF80EC089500240A94B8
:1022A0001616170618060906089500240A94121631
:1022B0001306140605060895092E0394000C11F464
:1022C000882352F0BB0F40F4BF2B11F460FF04C011
:1022D0006F5F7F4F8F4F9F4F089557FD9058440F6A
:1022E000551F59F05F3F71F04795880F97FB991F75
:1022F00061F09F3F79F08795089512161306140632
:10230000551FF2CF4695F1DF08C0161617061806BE
:10231000991FF1CF86957105610508940895E89499
:10232000BB2766277727CB0197F908950E942111D3
:1023300008F48FEF0895991B79E004C0991F961750
:1023400008F0961B881F7A95C9F780950895EE0FBF
:10235000FF1F881F8BBF0790F691E02D1994F8940A
:10236000FFCF0500014300005A5A5A5A5A014F0044
:10237000FFFF03000000014D0000010144000103C4
:102380000000000001430001000145005A5A5A5A5A
:102390005A5A00000000CD02370264021A03950267
:1023A000730287020D0A00436F6E74726F6C6C6566
:1023B00072206D6F6465206E6F74206D6174636848
:1023C0006564206F72206E6F20636F6E74726F6C25
:1023D0006C657220666F756E640045787065637415
:1023E000656420307834312C2030783733206F7298
:1023F00020307837392C2062757420676F74200084
:10240000436F6E74726F6C6C6572206E6F742061B6
:102410006363657074696E6720636F6D6D616E6470
:1024200073006D6F6465207374696C20736574202C
:10243000617400466F756E6420436F6E74726F6CCA
:102440006C65722C20636F6E6669677572656420B7
:102450007375636365737366756C20006572726F64
:1024600072004C33207072657373656400523320C0
:0E247000707265737365640073746570330079
:020000040003F7
:10E000000D9489F10D94B2F10D94B2F10D94B2F129
:10E010000D94B2F10D94B2F10D94B2F10D94B2F1F0
:10E020000D94B2F10D94B2F10D94B2F10D94B2F1E0
:10E030000D94B2F10D94B2F10D94B2F10D94B2F1D0
:10E040000D94B2F10D94B2F10D94B2F10D94B2F1C0
:10E050000D94B2F10D94B2F10D94B2F10D94B2F1B0
:10E060000D94B2F10D94B2F10D94B2F10D94B2F1A0
:10E070000D94B2F10D94B2F10D94B2F10D94B2F190
:10E080000D94B2F10D94B2F10D94B2F10D94B2F180
:10E090000D94B2F10D94B2F10D94B2F10D94B2F170
:10E0A0000D94B2F10D94B2F10D94B2F10D94B2F160
:10E0B0000D94B2F10D94B2F10D94B2F10D94B2F150
:10E0C0000D94B2F10D94B2F10D94B2F10D94B2F140
:10E0D0000D94B2F10D94B2F10D94B2F10D94B2F130
:10E0E0000D94B2F141546D656761323536300041AF
:10E0F000726475696E6F206578706C6F72657220DE
:10E1000073746B3530305632206279204D4C530099
:10E11000426F6F746C6F616465723E004875683F52
:10E1200000436F6D70696C6564206F6E203D200048
:10E130004350552054797065202020203D20005FF9
:10E140005F4156525F415243485F5F3D2000415658
:10E1500052204C696243205665723D20004743437C
:10E160002056657273696F6E203D20004350552024
:10E1700049442020202020203D20004C6F7720663D
:10E18000757365202020203D20004869676820665F
:10E190007573652020203D200045787420667573D6
:10E1A00065202020203D20004C6F636B2066757336
:10E1B000652020203D20004D617220203720323024
:10E1C000313300312E362E3800342E332E350056A2
:10E1D00023202020414444522020206F7020636F70
:10E1E00064652020202020696E73747275637469E1
:10E1F0006F6E2061646472202020496E74657272B3
:10E20000757074006E6F20766563746F7200726A49
:10E210006D702020006A6D70200057686174207056
:10E220006F72743A00506F7274206E6F7420737541
:10E2300070706F72746564004D7573742062652030
:10E2400061206C6574746572002000577269747483
:10E25000696E672045450052656164696E672045B7
:10E26000450045452065727220636E743D00504F35
:10E27000525400303D5A65726F2061646472003FF1
:10E280003D43505520737461747300403D454550C3
:10E29000524F4D207465737400423D426C696E6B41
:10E2A000204C454400453D44756D70204545505215
:10E2B0004F4D00463D44756D7020464C415348001B
:10E2C000483D48656C70004C3D4C69737420492F83
:10E2D0004F20506F72747300513D51756974005234
:10E2E0003D44756D702052414D00563D73686F7707
:10E2F00020696E7465727275707420566563746FF0
:10E30000727300593D506F727420626C696E6B00BD
:10E310002A0011241FBECFEFD1E2DEBFCDBF01E046
:10E320000CBF12E0A0E0B2E0EEE1FDEF03E00BBFB6
:10E3300002C007900D92A030B107D9F712E0A0E01B
:10E34000B2E001C01D92AE30B107E1F70F9460F367
:10E350000D948DFE01E20EBF0FEF0DBF11241FBE05
:10E360000D9460F30D9400F020E030E040ED57E0B4
:10E3700005C0FA013197F1F72F5F3F4F2817390792
:10E38000C0F308959C01260F311DC901A0E0B0E043
:10E390002F5F3F4FABBFFC018791882361F08093D3
:10E3A000C6008091C00086FFFCCF8091C0008064D1
:10E3B0008093C000EACF08958DE08093C6008091DD
:10E3C000C00086FFFCCF8091C00080648093C000B5
:10E3D0008AE08093C6008091C00086FFFCCF8091C8
:10E3E000C00080648093C00008950F94C2F10F9420
:10E3F000DCF10895FC019081992359F09093C600B7
:10E400008091C00086FFFCCF8091C0008064809323
:10E41000C0003196992379F70895282F982F929567
:10E420009F70892F805D8A3308F0895F8093C600D2
:10E430008091C00086FFFCCF8091C00080648093F3
:10E44000C000822F8F70982F905D9A3308F0995FEB
:10E450009093C6008091C00086FFFCCF8091C000E1
:10E4600080648093C00008959C01FB01853691056E
:10E470001CF46330710594F0C90164E670E00F94F8
:10E480002EFE605D7F4F6093C6008091C00086FFC6
:10E49000FCCF8091C00080648093C0002B30310598
:10E4A00014F43297B4F0C90164E670E00F942EFEC4
:10E4B0006AE070E00F942EFE605D7F4F6093C600AF
:10E4C0008091C00086FFFCCF8091C0008064809363
:10E4D000C000C9016AE070E00F942EFEC0968093E0
:10E4E000C6008091C00086FFFCCF8091C000806490
:10E4F0008093C00008951F93182F8EE692EE60E07F
:10E500000F94C2F11093C6008091C00086FFFCCF2B
:10E510008091C00080648093C0000F94DCF11F9153
:10E5200008952F923F924F925F926F927F928F92B7
:10E530009F92AF92BF92CF92DF92EF92FF920F9392
:10E540001F93DF93CF93CDB7DEB762970FB6F894E2
:10E55000DEBF0FBECDBF382E622ECA01DB015C01CB
:10E560006D01772420E2222E2E010894411C511CBB
:10E570008BC081E0A81680E0B80681E0C80680E084
:10E58000D80628F0C601AA27BB270F940DF2BB2797
:10E59000AD2D9C2D8B2D0F940DF28A2D0F940DF225
:10E5A0002092C6008091C00086FFFCCF8091C00001
:10E5B00080648093C0009DE29093C6008091C0006B
:10E5C00086FFFCCF8091C00080648093C0002092C1
:10E5D000C6008091C00086FFFCCF8091C00080649F
:10E5E0008093C00019828601750188249924A1E0D6
:10E5F0003A1651F03A1620F0B2E03B1661F409C029
:10E600000BBFF701779007C0C7010F9477FE782EF4
:10E6100002C0F7017080872D0F940DF22092C60082
:10E620008091C00086FFFCCF8091C0008064809301
:10E63000C000872D8052F401EF70F0708F3520F408
:10E64000E40DF51D708204C0E40DF51D8EE280839B
:10E650000894E11CF11C011D111D0894811C911CE2
:10E6600090E18916910409F0C2CF80E190E0A0E02A
:10E67000B0E0A80EB91ECA1EDB1E198AC2010F9493
:10E68000FAF10F94DCF16A94662009F072CF629679
:10E690000FB6F894DEBF0FBECDBFCF91DF911F91B3
:10E6A0000F91FF90EF90DF90CF90BF90AF909F9031
:10E6B0008F907F906F905F904F903F902F90089534
:10E6C0002F923F924F925F926F927F928F929F9282
:10E6D000AF92BF92CF92DF92EF92FF920F931F9370
:10E6E000DF93CF93CDB7DEB7CD53D1400FB6F894BB
:10E6F000DEBF0FBECDBF01E20EBF0FEF0DBF94B75F
:10E70000F894A89514BE80916000886180936000A1
:10E7100010926000789493FF05C0E0910002F091A0
:10E7200001021995279A2F9A8091C00082608093E8
:10E73000C00080E18093C40088E18093C1000000A4
:10E74000EE24FF24870144E0A42EB12CCC24DD2448
:10E7500024C0C5010197F1F70894E11CF11C011DCB
:10E76000111D21E2E2162EE4F20620E0020720E06D
:10E77000120718F031E0C32ED12CC801B70127ECE5
:10E780003BE140E050E00F9441FE611571058105C9
:10E79000910519F485B1805885B98091C00087FD35
:10E7A00003C0C114D104A9F2A6014F5F5F4FC25E3E
:10E7B000DE4F59834883CE51D140C25EDE4F8881FF
:10E7C0009981CE51D140019711F00D9410FEC05D9A
:10E7D000DE4F19821882C053D14060E0C15DDE4F28
:10E7E0001882CF52D14088249924C35DDE4F19820C
:10E7F0001882CD52D140C05EDE4F188219821A8233
:10E800001B82C052D140CE5CDE4F188219821A8220
:10E810001B82C253D140EE24FF2487010BBFF701B6
:10E8200007911691C45CDE4F19830883CC53D14005
:10E830000D940BFEC25EDE4F28813981CE51D1404E
:10E840002130310509F52091C600C25EDE4F1982E4
:10E850001882CE51D14022C02F5F3F4F4F4F5F4FA4
:10E86000213082E138078AE7480780E0580780F0C6
:10E87000C45CDE4FE881F981CC53D140EF5FFF4F9C
:10E8800019F0EE27FF27099420E030E040E050E047
:10E890008091C00087FFE0CF2091C600C35DDE4FAE
:10E8A00048815981CD52D1404F5F5F4FC35DDE4FEC
:10E8B00059834883CD52D140213209F063C64A3092
:10E8C000510508F05FC60894811C911C53E0851621
:10E8D000910409F059C600E010E018C081E280936D
:10E8E000C6008091C00086FFFCCF8091C00080648C
:10E8F0008093C0002F5F3F4F2931310579F70F9486
:10E90000DCF10F5F1F4F0530110519F020E030E0FA
:10E91000E5CF10920A0210920B0210920C02109294
:10E920000D02109206021092070210920802109235
:10E930000902109202021092030210920402109235
:10E9400005028FEE90EE60E00F94F5F180E191EE1C
:10E9500060E00F94C2F18091C00087FFFCCF9091DE
:10E96000C600903608F09F759032B8F09093C600BC
:10E970008091C00086FFFCCF8091C00080648093AE
:10E98000C000A0E2A093C6008091C00086FFFCCF2B
:10E990008091C00080648093C000983409F4D7C18E
:10E9A0009934B8F4923409F459C1933458F490333B
:10E9B00019F1903308F4E3C59F33A1F1903409F0C5
:10E9C000DEC5BDC0953409F470C1963409F0D7C5D1
:10E9D00098C1923509F42BC2933538F49C3409F46C
:10E9E000F5C1913509F0CBC518C2963509F445C279
:10E9F000993509F0C4C567C483E792EE62E00F94CD
:10EA0000F5F110920602109207021092080210927D
:10EA1000090210920A0210920B0210920C0210923C
:10EA20000D0213C18FE792EE62E00F94F5F18FEEC5
:10EA300090EE60E00F94F5F181E291EE60E00F94CA
:10EA4000C2F187EB91EE60E00F94F5F180E391EE77
:10EA500060E00F94C2F184EE90EE60E00F94F5F167
:10EA60008FE391EE60E00F94C2F186E090E061E008
:10EA700070E00F9434F20F94DCF18DE591EE60E0DC
:10EA80000F94C2F189EC91EE60E00F94F5F18EE401
:10EA900091EE60E00F94C2F183EC91EE60E00F9490
:10EAA000F5F18CE691EE60E00F94C2F18EE10F94E7
:10EAB0000DF288E90F940DF281E00F940DF20F949E
:10EAC000DCF18BE791EE60E00F94C2F119E0E0E039
:10EAD000F0E010935700E4918E2F0F940DF20F94F5
:10EAE000DCF18AE891EE60E00F94C2F1E3E0F0E03F
:10EAF00010935700E4918E2F0F940DF20F94DCF1D8
:10EB000089E991EE60E00F94C2F1E2E0F0E0109349
:10EB10005700E4918E2F0F940DF20F94DCF188EAE8
:10EB200091EE60E00F94C2F1E1E0F0E01093570045
:10EB30001491812F0F940DF20F94DCF107CF8BE825
:10EB400092EE62E00F94F5F18BE492EE60E00F94A8
:10EB5000F5F10F94DCF100E010E019C0C8016F2D51
:10EB60000F947FFEFF2031F489E492EE60E00F9471
:10EB7000C2F10BC0F092C6008091C00086FFFCCFAE
:10EB80008091C00080648093C0000F5F1F4FC80158
:10EB900081519F41A0E0B0E0ABBFFC01F790BAE229
:10EBA000FB1621F0E2E000301E07C1F60F94DCF105
:10EBB0000F94DCF187E592EE60E00F94F5F10F948D
:10EBC000DCF1CC24DD2400E010E01EC0C8010F946D
:10EBD00077FEF82E882331F489E492EE60E00F94FA
:10EBE000C2F10BC08093C6008091C00086FFFCCFAD
:10EBF0008091C00080648093C000FE1419F00894D6
:10EC0000C11CD11C0F5F1F4FC80181519F41A0E063
:10EC1000B0E0ABBFFC01E790FAE2EF1621F022E092
:10EC20000030120799F60F94DCF10F94DCF182E6C4
:10EC300092EE60E00F94C2F1C60161E070E00F94C3
:10EC400034F20F94DCF10F94DCF110920202109276
:10EC50000302109204021092050278CE89E992EE26
:10EC600062E00F94F5F1279A2F9A16C02F9880E052
:10EC700090E0E0EDF7E03197F1F7019684369105E9
:10EC8000C1F72F9A80E090E0E0EDF7E03197F1F7DF
:10EC9000019684369105C1F78091C00087FFE6CFC9
:10ECA0008091C00087FFFCCF64C485EA92EE62E0E9
:10ECB0000F94F5F140910202509103026091040219
:10ECC0007091050281E020E10F9491F2809102029F
:10ECD00090910302A0910402B091050280509F4FD1
:10ECE000AF4FBF4F8093020290930302A0930402A0
:10ECF000B093050280509041A040B04008F426CE69
:10ED0000A4CF83EB92EE62E00F94F5F140910602FE
:10ED100050910702609108027091090280E020E1A1
:10ED20000F9491F28091060290910702A09108023F
:10ED3000B091090280509F4FAF4FBF4F80930602A2
:10ED400090930702A0930802B0930902FFCD80ECD4
:10ED500092EE62E00F94F5F183E792EE60E00F949B
:10ED6000F5F18FE792EE60E00F94F5F18BE892EE0B
:10ED700060E00F94F5F189E992EE60E00F94F5F10F
:10ED800085EA92EE60E00F94F5F183EB92EE60E09D
:10ED90000F94F5F180EC92EE60E00F94F5F187ECC2
:10EDA00092EE60E00F94F5F188ED92EE60E00F9442
:10EDB000F5F18FED92EE60E00F94F5F18AEE92EEB0
:10EDC00060E00F94F5F183E093EEBDCD87EC92EE19
:10EDD00062E00F94F5F181E40F947BF282E40F94EA
:10EDE0007BF283E40F947BF284E40F947BF285E45E
:10EDF0000F947BF286E40F947BF287E40F947BF20E
:10EE000088E40F947BF28AE40F947BF28BE40F94F6
:10EE10007BF28CE40F947BF299CD88ED92EE62E068
:10EE20000F94F5F1772473948824992409C48FED05
:10EE300092EE62E00F94F5F140910A0250910B02BC
:10EE400060910C0270910D0282E020E10F9491F22A
:10EE500080910A0290910B02A0910C02B0910D02D8
:10EE600080509F4FAF4FBF4F80930A0290930B0289
:10EE7000A0930C02B0930D0269CD8AEE92EE62E08F
:10EE80000F94F5F184EE90EE60E00F94F5F18FECC5
:10EE900091EE60E00F94F5F1662477244301CC5D98
:10EEA000DE4F19821882C452D140D401C301B695F5
:10EEB000A79597958795CA5DDE4F88839983AA8326
:10EEC000BB83C652D140CC5DDE4FA881B981C4520C
:10EED000D1401196CC5DDE4FB983A883C452D14096
:10EEE000CD0162E070E00F9434F2B0E2B093C6005E
:10EEF0008091C00086FFFCCF8091C0008064809329
:10EF0000C000EDE2E093C6008091C00086FFFCCF18
:10EF10008091C00080648093C000F0E2F093C6004E
:10EF20008091C00086FFFCCF8091C00080648093F8
:10EF3000C000CA5DDE4FE880F9800A811B81C6529D
:10EF4000D140BB27A12F902F8F2D0F940DF2CA5DBA
:10EF5000DE4F8881C652D1400F940DF2B0E2FB2EF5
:10EF6000F092C6008091C00086FFFCCF8091C00067
:10EF700080648093C0000DE30093C6008091C000C0
:10EF800086FFFCCF8091C00080648093C00010E2B7
:10EF90001093C6008091C00086FFFCCF8091C00016
:10EFA00080648093C0008BBEF3012791C65DDE4F65
:10EFB0002883CA52D140A22EBB24CC24DD2408943D
:10EFC000611C711C811C911C8BBEF3018791282E42
:10EFD0003324442455240894611C711C811C911C09
:10EFE0008BBEF3013791C55DDE4F3883CB52D140E4
:10EFF0000894611C711C811C911C8BBEF30147910C
:10F00000C45DDE4F4883CC52D140ADEFEA2EAFEF66
:10F01000FA2EAFEF0A2FAFEF1A2F6E0C7F1C801E57
:10F02000911E142D032DF22CEE24EA0CFB1C0C1D5A
:10F030001D1D0F940DF220E22093C6008091C000A8
:10F0400086FFFCCF8091C00080648093C000C65DC5
:10F05000DE4F8881CA52D1400F940DF230E23093D6
:10F06000C6008091C00086FFFCCF8091C000806404
:10F070008093C000C45DDE4F8881CC52D1400F9494
:10F080000DF240E24093C6008091C00086FFFCCFA5
:10F090008091C00080648093C000C55DDE4F888190
:10F0A000CB52D1400F940DF250E25093C6008091A4
:10F0B000C00086FFFCCF8091C00080648093C000B8
:10F0C0008FEFE8168FEFF80680E0080780E018075A
:10F0D00031F484E092EE60E00F94C2F1DFC0D80119
:10F0E000C7018070907CA070B0708050904CA040A0
:10F0F000B040D1F52FEF3FE340E050E0E222F322B1
:10F1000004231523CA5DDE4FA880B980CA80DB8046
:10F11000C652D140AE0CBF1CC01ED11EAA0CBB1CD7
:10F12000CC1CDD1C8EE092EE60E00F94C2F1BB2798
:10F13000A12F902F8F2D0F940DF28E2D0F940DF285
:10F1400030E23093C6008091C00086FFFCCF8091F2
:10F15000C00080648093C0004EE34093C60080915D
:10F16000C00086FFFCCF87C08EE09EEFA0E0B0E03D
:10F17000E822F9220A231B239CE0E91694E9F90608
:10F1800090E0090790E0190709F088C0C45DDE4FE0
:10F19000A881CC52D140EA2EFF2400E010E0102FCD
:10F1A0000F2DFE2CEE24C55DDE4FB881CB52D14031
:10F1B000EB0EF11C011D111DD601C501817090706F
:10F1C000A070B070DC0199278827E80EF91E0A1F8D
:10F1D0001B1F20EF30E040E050E0A222B322C42207
:10F1E000D52241E1AA0CBB1CCC1CDD1C4A95D1F7F1
:10F1F000EA0CFB1C0C1D1D1D81E090E0A0E0B0E0BE
:10F20000282239224A225B2235E1220C331C441C7D
:10F21000551C3A95D1F7E20CF31C041D151D57013E
:10F220006801AA0CBB1CCC1CDD1C85E192EE60E0E1
:10F230000F94C2F1C801AA27BB270F940DF2BB2778
:10F24000A12F902F8F2D0F940DF28E2D0F940DF274
:10F2500090E29093C6008091C00086FFFCCF809121
:10F26000C00080648093C000AEE3A093C60080918C
:10F27000C00086FFFCCF8091C00080648093C000F6
:10F28000C601AA27BB270F940DF2BB27AD2D9C2DDD
:10F290008B2D0F940DF28A2D0F940DF20F94DCF14B
:10F2A000CC5DDE4FE881F981C452D140F99709F471
:10F2B0004DCBF4E0EF2EF12C012D112D6E0C7F1CA7
:10F2C000801E911EF2CD83E093EE62E00F94F5F183
:10F2D0008AE192EE60E00F94C2F18091C00087FF56
:10F2E000FCCF1091C6001F751093C6008091C0001E
:10F2F00086FFFCCF8091C00080648093C0000F9493
:10F30000DCF1812F81548A3108F036C1163409F4BA
:10F3100095C0173490F4133409F44EC0143430F40B
:10F320001134F1F0123409F01DC130C0143409F465
:10F3300059C0153409F016C16BC01A3409F4C4C0A1
:10F340001B3438F4173409F48FC0183409F00AC19B
:10F35000A1C01B3409F4D2C01C3409F003C1E8C0B9
:10F360008FEF81B90DC082B1809582B980E090E0C5
:10F37000E0EDF7E03197F1F70196883C9105C1F790
:10F380008091C00087FFEFCF12B8EFC08FEF84B934
:10F390000DC085B1809585B980E090E0E0EDF7E0A3
:10F3A0003197F1F70196883C9105C1F78091C00033
:10F3B00087FFEFCF15B8D9C08FEF87B90DC088B1DF
:10F3C000809588B980E090E0E0EDF7E03197F1F7C3
:10F3D0000196883C9105C1F78091C00087FFEFCF6F
:10F3E00018B8C3C08FEF8AB90DC08BB180958BB9A7
:10F3F00080E090E0E0EDF7E03197F1F70196883C8E
:10F400009105C1F78091C00087FFEFCF1BB8ADC059
:10F410008FEF8DB90DC08EB180958EB980E090E0F0
:10F42000E0EDF7E03197F1F70196883C9105C1F7DF
:10F430008091C00087FFEFCF1EB897C08FEF80BBD1
:10F440000DC081B3809581BB80E090E0E0EDF7E0F6
:10F450003197F1F70196883C9105C1F78091C00082
:10F4600087FFEFCF11BA81C08FEF83BB0DC084B38C
:10F47000809584BB80E090E0E0EDF7E03197F1F714
:10F480000196883C9105C1F78091C00087FFEFCFBE
:10F4900014BA6BC08FEF809301010FC080910201FD
:10F4A00080958093020180E090E0E0EDF7E03197F5
:10F4B000F1F70196883C9105C1F78091C00087FF64
:10F4C000EDCF1092020151C08FEF809304010FC065
:10F4D0008091050180958093050180E090E0E0ED4A
:10F4E000F7E03197F1F70196883C9105C1F78091DB
:10F4F000C00087FFEDCF1092050137C08FEF8093DA
:10F5000007010FC08091080180958093080180E079
:10F5100090E0E0EDF7E03197F1F70196883C910536
:10F52000C1F78091C00087FFEDCF109208011DC088
:10F530008FEF80930A010FC080910B01809580931B
:10F540000B0180E090E0E0EDF7E03197F1F70196F4
:10F55000883C9105C1F78091C00087FFEDCF1092E4
:10F560000B0103C085E292EEEEC98091C00087FFD7
:10F57000FCCF8091C600EAC988E392EEE4C98CE131
:10F5800091EEE1C988249924933011F1943028F444
:10F59000913089F09230B8F408C0953061F195301F
:10F5A000F0F0963009F048C043C02B3109F042C951
:10F5B00091E06BE13FC96227C15DDE4F2883CF52E6
:10F5C000D14092E037C9B22FA0E0622793E032C960
:10F5D000822F90E0A82BB92B622794E02BC92E3004
:10F5E00009F039C3622795E0C05DDE4F19821882A9
:10F5F000C053D1401FC9E1E0F0E0EC0FFD1FC05D3A
:10F60000DE4F08811981C053D140E00FF11F2083E4
:10F610000F5F1F4FC05DDE4F19830883C053D14079
:10F6200062270A171B0709F005C9D80196E002C92D
:10F63000261709F010C303C0973009F0FBC87724E0
:10F640009981933109F412C19431C8F4963009F4C8
:10F65000D8C0973050F4923009F406C1933009F4C1
:10F660006DC0913009F059C253C0913109F477C08F
:10F67000923108F0BBC0903109F04FC2F5C098310B
:10F6800009F487C0993150F4953109F4EFC09531F0
:10F6900008F4C6C1963109F040C2C2C19A3109F4DA
:10F6A0006CC09A3108F491C09B3109F45BC09D3164
:10F6B00009F033C29D81903359F48F81882311F46E
:10F6C0009EE11CC0813011F091E018C098E916C08D
:10F6D000892F807591F0903539F4E0E0F0E089E011
:10F6E0008093570094910AC0983539F4E3E0F0E034
:10F6F00089E080935700949101C090E01A821B82A8
:10F700008D818C831D829E831F8227E030E009C299
:10F710001A8288E08B8381E48C8386E58D8382E581
:10F720008E8389E48F8383E5888780E589878FE5E9
:10F730008A8782E38B872BE030E0F3C18A818139AD
:10F7400041F0823941F0803911F48FE005C080E04A
:10F7500003C082E001C08AE01A828B8344C0772410
:10F76000739482C08D81882311F48EE12CC0813086
:10F7700011F081E028C088E926C01A82E1E0F0E0BB
:10F7800089E08093570084918B831C8224E030E0D1
:10F79000C8C18B81803589F48C81883039F4E2E0EE
:10F7A000F0E089E08093570084910DC0E0E0F0E044
:10F7B00089E080935700849106C0E3E0F0E089E09F
:10F7C0008093570084911A82DFCF8D81836C99E0FA
:10F7D000E1E0F0E0082E90935700E89507B600FCB2
:10F7E000FDCF1A821B8223E030E09BC180EC8A832C
:10F7F000CE5CDE4F188219821A821B82C253D1401E
:10F800008EC18A8190E0A0E0B0E0582F44273327D2
:10F8100022278B8190E0A0E0B0E0DC0199278827C7
:10F82000282B392B4A2B5B2B8D8190E0A0E0B0E098
:10F83000282B392B4A2B5B2B8C8190E0A0E0B0E089
:10F84000BA2FA92F982F8827282B392B4A2B5B2BCF
:10F85000220F331F441F551FC05EDE4F288339839C
:10F860004A835B83C052D1401A8259C13A81C95C34
:10F87000DE4F3883C753D140CA5CDE4F1882C6536F
:10F88000D1408B81C82EDD24CA5CDE4F488159816E
:10F89000C653D140C42AD52A933109F082C0CE5C28
:10F8A000DE4F88819981AA81BB81C253D1408050AB
:10F8B000904CA340B04030F583E0CE5CDE4FE88052
:10F8C000F9800A811B81C253D140F70100935B008C
:10F8D00080935700E89507B600FCFDCFCE5CDE4F65
:10F8E000088119812A813B81C253D14000501F4FAA
:10F8F0002F4F3F4FCE5CDE4F088319832A833B8313
:10F90000C253D140C05EDE4F488159816A817B81FC
:10F91000C052D140DE011B9631E08C9111962C91A2
:10F9200011971296C75CDE4F2883C953D140C85C3B
:10F93000DE4F1882C853D14090E0C85CDE4FE881AA
:10F94000F981C853D1408E2B9F2B0C01FA01609393
:10F950005B0030935700E89511244E5F5F4F6F4F67
:10F960007F4F0EEFE02E0FEFF02ECE0CDF1CC114F8
:10F97000D10499F685E0C05EDE4F088119812A81A5
:10F980003B81C052D140F80120935B008093570027
:10F99000E89507B600FCFDCF81E180935700E8951C
:10F9A00035C0C05EDE4F88819981AA81BB81C0527B
:10F9B000D140B695A795979587957C018601ABE0D8
:10F9C000AA2EB12CAC0EBD1E0BC0D5016D915D01F0
:10F9D000C7010F947FFE0894E11CF11C01501040F8
:10F9E0000115110591F7A60160E070E0440F551F65
:10F9F000661F771FC05EDE4FE880F9800A811B8199
:10FA0000C052D1404E0D5F1D601F711F1A82C05E33
:10FA1000DE4F488359836A837B83C052D1407FC0C5
:10FA2000FA80C55CDE4FF882CB53D140C65CDE4F16
:10FA30001882CA53D1408B81C82EDD24C65CDE4FAC
:10FA400008811981CA53D140C02AD12A1A828981DA
:10FA5000BE016D5F7F4F843121F59601C05EDE4FA0
:10FA6000E880F9800A811B81C052D1400BBFF701A9
:10FA700087919691DB018C9311969C936E5F7F4FDB
:10FA8000D801C7010296A11DB11DC05EDE4F88835B
:10FA90009983AA83BB83C052D14022503040F1F6F3
:10FAA00036C0C05EDE4F288139814A815B81C052F9
:10FAB000D1400894C108D108760100E010E0089414
:10FAC000C11CD11C0894E11CF11C011D111DE20E8A
:10FAD000F31E041F151F21BDBB27A52F942F832FB5
:10FAE00082BD2F5F3F4F4F4F5F4FF89A80B5DB01CC
:10FAF0008D93BD012E153F054007510761F7C05E8C
:10FB0000DE4F288339834A835B83C052D1409601FC
:10FB10002D5F3F4FFB01108204C080EC8A8322E0FE
:10FB200030E08BE18093C6008091C00086FFFCCF5F
:10FB30008091C00080648093C000C15DDE4FF88179
:10FB4000CF52D140F093C6008091C00086FFFCCF19
:10FB50008091C00080648093C000432F3093C60022
:10FB60008091C00086FFFCCF8091C00080648093AC
:10FB7000C000922F2093C6008091C00086FFFCCF6A
:10FB80008091C00080648093C0008EE08093C600A6
:10FB90008091C00086FFFCCF8091C000806480937C
:10FBA000C00065E1C15DDE4FE880CF52D1406E25D7
:10FBB00069276427FE01319610C090819093C6009A
:10FBC0008091C00086FFFCCF31968091C000806498
:10FBD0008093C0006927215030402115310569F715
:10FBE0006093C6008091C00086FFFCCF8091C0006A
:10FBF00080648093C00085B1805885B9772081F4F6
:10FC0000C15DDE4F0881CF52D1400F5FC15DDE4F35
:10FC10000883CF52D14090E0A0E0B0E00D941AF4F8
:10FC200027982F9880E090E020ED37E0F901319798
:10FC3000F1F7019684369105C9F700008091C00064
:10FC40008D7F8093C00081E180935700E895EE2777
:10FC5000FF270994FFCF90E00D941AF497FB092E2B
:10FC600007260AD077FD04D02ED006D000201AF443
:10FC7000709561957F4F0895F6F7909581959F4F08
:10FC80000895A1E21A2EAA1BBB1BFD010DC0AA1FDD
:10FC9000BB1FEE1FFF1FA217B307E407F50720F0F5
:10FCA000A21BB30BE40BF50B661F771F881F991F70
:10FCB0001A9469F760957095809590959B01AC01B9
:10FCC000BD01CF010895AA1BBB1B51E107C0AA1FAC
:10FCD000BB1FA617B70710F0A61BB70B881F991FED
:10FCE0005A95A9F780959095BC01CD010895F99991
:10FCF000FECF92BD81BDF89A992780B50895262F31
:10FD0000F999FECF1FBA92BD81BD20BD0FB6F89400
:0EFD1000FA9AF99A0FBE01960895F894FFCF63
:00000001FF
